:020000040800F2
:10000000B8080020052D00089D0300089F03000884
:10001000A3030008A7030008AB03000800000000CA
:10002000000000000000000000000000AF03000816
:10003000B103000800000000B3030008B503000886
:100040001F2D00081F2D00081F2D00081F2D000860
:100050001F2D00081F2D00081F2D00081F2D000850
:100060001F2D00081F2D00081F2D00081F2D000840
:100070001F2D00081F2D00081F2D00081F2D000830
:100080001F2D00081F2D00081F2D00081F2D000820
:100090001F2D00081F2D00081F2D00081F2D000810
:1000A0001F2D00081F2D00081F2D00081F2D000800
:1000B0001F2D00081F2D00081F2D00081F2D0008F0
:1000C0001F2D00081F2D00081F2D00081F2D0008E0
:1000D0001F2D00086B2C00081F2D00081F2D000885
:1000E0001F2D00081F2D00081F2D00081F2D0008C0
:1000F0001F2D00081F2D00081F2D00081F2D0008B0
:100100001F2D00081F2D00081F2D00081F2D00089F
:100110001F2D00081F2D00081F2D0008650A00086C
:100120001F2D00081F2D00081F2D00081F2D00087F
:100130001F2D00081F2D00081F2D00081F2D00086F
:100140001F2D00081F2D00081F2D00081F2D00085F
:100150001F2D00081F2D00081F2D00081F2D00084F
:100160001F2D00081F2D00081F2D00081F2D00083F
:100170001F2D00081F2D00081F2D00081F2D00082F
:100180001F2D00081F2D000800F002F800F03CF8B9
:100190000AA090E8000C82448344AAF10107DA45E2
:1001A00001D100F031F8AFF2090EBAE80F0013F0F8
:1001B000010F18BFFB1A43F001031847EC4C000075
:1001C0000C4D0000103A24BF78C878C1FAD8520705
:1001D00024BF30C830C144BF04680C6070470000C1
:1001E0000023002400250026103A28BF78C1FBD840
:1001F000520728BF30C148BF0B6070471FB504F0DD
:100200004DFE1FBD10B510BD04F005FB1146FFF7F4
:10021000F5FF00F030F804F023FB03B4FFF7F2FF22
:1002200003BC02F0A7FC000070B505460C46504820
:100230000068A04219DA4F480068401C38B94E489F
:100240004B4A1268815C4D48006801F0E4FA494865
:10025000006801280ED146480068401C44490860E7
:100260004FF0FF304349086004E000F09FFD01209B
:100270004349086070BD4FF4A06002F063FDA82000
:1002800002F0F6FB4FF4165002F081FC00F09CF9EE
:1002900000F0C2F900F030FD02214CF20F7000F0C6
:1002A00021FA0020374908603749C1F888025DE02B
:1002B00002F0D0FC012841D1344803F06DFE3449EE
:1002C00008702F480068022808D1084600780128E5
:1002D00004D100F0AFFB0320294908602C480078C6
:1002E000FF283AD100202B4908602549086000BF4B
:1002F000264803F051FE2649087008460078FE287B
:1003000013D008460078FF280FD02248006860B953
:1003100008460178204802680068401C1E4B18609F
:100320001548815401201B49086019480078FE28AF
:1003300013D0184800680028DAD00EE00E48007884
:10034000401C15490968884207D10D48006820B94A
:10035000114801680848FFF767FF0948006801284D
:1003600004D102F066FC022005490860A0E7000005
:100370000C000020600000208C00002064000020A1
:100380001000002080024042000040420010014066
:10039000000000201400002004000020704700BF6F
:1003A000FEE700BFFEE700BFFEE700BFFEE77047C5
:1003B00070477047704700000CB500200190009016
:1003C0007648006840F480307449086000BF734884
:1003D000006800F4003000900198401C01900098E3
:1003E00018B90198B0F5A04FF1D16C48006800F43D
:1003F000003010B10120009001E000200090009832
:10040000012846D165484030006840F0805063497B
:10041000403108606248006840F44040604908602C
:100420005E48083000685D49083108600846006889
:1004300040F4004008600846006840F4A05008609E
:100440005848091F0860081F006840F08070091FA5
:10045000086000BF5148006800F000700028F9D023
:1004600040F20570504908604C480830006820F0A0
:1004700003004A49083108600846006840F002005D
:10048000086000BF45480830006800F00C000828EC
:10049000F8D10CBD10B54548006840F470004349E0
:1004A00008603E48006840F001003C4908600020B8
:1004B0003A4908310860394800683D4908403749E1
:1004C00008603C48091D0860081F006820F480206F
:1004D000091F0860002031490C310860FFF76CFFEC
:1004E0004FF0006031498039086010BD70B50020C0
:1004F0000022022300240221284D08352D6805F032
:100500000C0020B1042806D0082834D107E02A4D79
:100510002A4E356033E02A4D284E35602FE01F4DBE
:100520002D1D2D68C5F380541C4D2D1D2D6805F023
:100530003F0154B1224DB5FBF1F5184E361D36681A
:10054000C6F3881605FB06F209E01B4DB5FBF1F575
:10055000124E361D3668C6F3881605FB06F20F4D9F
:100560002D1D2D68C5F301456D1C6B00B2FBF3F525
:10057000124E356003E0104D104E356000BF00BFD5
:10058000064D08352D68C5F303150E4E705D0B4DF5
:100590002D68C540094E356070BD0000003802402E
:1005A0000070004008544007003C024088ED00E025
:1005B000FFFFF6FE103000240024F4001800002095
:1005C00000127A001C0000201CB50121084603F02F
:1005D000C9FF0F20009001208DF8040000208DF845
:1005E000060003208DF8050001208DF807006946FC
:1005F000F84802F09DFC0121F64802F017FD0221A7
:10060000F44802F013FD0421F24802F00FFD082126
:10061000F04802F00BFD1CBD00B58BB0012102209B
:1006200003F0E9FF0121084603F09CFF01210220AD
:1006300003F098FF02220621E64802F004FD0222A0
:100640000721E44802F0FFFC02220021E24802F008
:10065000FAFC02220121E04802F0F5FCC0200990DA
:1006600002208DF8280003208DF8290000208DF845
:100670002A0001208DF82B0009A9D64802F058FC69
:100680000020ADF818004FF6FF7007900020ADF87D
:100690001A00ADF8200006A9D04802F0BAFD60208B
:1006A000ADF804000120ADF806000220ADF81000FE
:1006B00001A9CA4802F042FE01A9C84802F077FE2B
:1006C0000821C64802F0C7FF0821C44802F0CCFF49
:1006D0000121C24802F008FE0121C04802F022FEBA
:1006E0000BB000BD3EB505460C460121202003F0AD
:1006F00082FF0195ADF800400020ADF80200ADF892
:1007000008006946B64802F084FD01221146B4484B
:1007100003F020FA0121B24802F004FE3EBD08B504
:1007200037208DF8000001208DF8010003208DF89E
:10073000020000208DF80300684602F008FB08BDA7
:1007400008B537208DF8000001208DF80100032046
:100750008DF8020001208DF80300684602F0F7FAD8
:1007600008BD10B5044621469C4802F040FF10BD6C
:1007700010B504462146994802F03BFF10BD70B504
:1007800005460C46012D0CD1964908609649086033
:100790000121924802F0C6FD0121914802F0C2FDFC
:1007A0000FE002208F4908600020904908608E49C0
:1007B00008600021894802F0B5FD0021884802F058
:1007C000B1FD3CB100208849091D08601E20FFF7DB
:1007D000C8FF06E001208449091D08601E20FFF7BC
:1007E000C0FF70BD70B505460C46012D0FD102202B
:1007F0007C49086001207C49083108600121774864
:1008000002F090FD0121764802F08CFD10E00120FD
:10081000744908600020764908607349083108600F
:1008200000216E4802F07EFD00216D4802F07AFD45
:100830003CB100206C490C3108601E20FFF798FF86
:1008400006E0012068490C3108601E20FFF790FF88
:1008500070BD012801D0411C11B96421654A1160A5
:10086000022802D1C821634A11600121624A116045
:100870007047012801D0411C11B964215D4A116003
:10088000022802D1C8215B4A116001215A4A116035
:10089000704710B504465848006838B95748006892
:1008A0002044564908602046FFF7D3FF012C16D19B
:1008B00051480068012812D103E001210846FFF7E2
:1008C0005EFF4F4800680128F7D100210846FFF776
:1008D00056FF00204A490860022047490860022C60
:1008E00016D145480068012812D103E001210846CD
:1008F000FFF745FF424800680228F7D1002108466B
:10090000FFF73DFF00203E49086002203A49086099
:10091000601CB8B938480068012813D103E00021F1
:100920000120FFF72CFF36480068401C0028F6D154
:1009300000210846FFF723FF00203149086002200C
:100940002D49086010BD10B5044654B12A4800680E
:1009500038B92C48006820442A4908602046FFF72F
:1009600088FF012C16D124480068012812D103E029
:1009700001210846FFF736FF234800680128F7D118
:1009800000210846FFF72EFF00201F4908600220C3
:1009900019490860022C16D117480068012812D1A5
:1009A00003E001210846FFF71DFF174800680228F1
:1009B000F7D100210846FFF715FF00201249086013
:1009C00002200D490860601C98BB0B480068012894
:1009D0002FD11FE00000024000040240000400404C
:1009E0000014004034000020800240424C000020EF
:1009F0004800002044000020500000202C0000206F
:100A00003C000020300000203800002000210120A0
:100A1000FFF7E8FEA0480068401C0028F6D100213E
:100A20000846FFF7DFFE00209B49086002209B4933
:100A3000086010BD10B59A49086800EBD0714910E4
:100A4000A0EB410111B10120FFF77DFF9549086836
:100A500000EBD0714910A0EB410111B10120FFF76B
:100A600018FF10BD10B52DED068B01218E4803F047
:100A700088F8012877D18D48006801281FD18C485B
:100A80000068401C8A4908608A48006858B90846CE
:100A90000068642813D10020086087480068401C63
:100AA000854908600BE082480068642807D100206F
:100AB0007F49086080480068401E7F4908607B4885
:100AC0000068022820D17D480068401C7B490860EE
:100AD00078480830006858B908460068642813D17F
:100AE000002008606C480068401C6B4908600BE0FF
:100AF00072480068642807D1002070490860664881
:100B00000068401E644908606D480068401C6C49DC
:100B10000860084600686B490968884279DA6948C4
:100B20000068642851D16648006828281CDA6448A7
:100B3000006803F0A8FF41EC1A0B9FED630B53EC28
:100B4000102B03F0B7FF41EC190B9FED610B53EC39
:100B5000102B04F0ADF841EC180B03F067FF0446CE
:100B600001F0A0FF31E053E055480068282807DB7A
:100B7000534800683C2803DCC82001F093FF24E0C0
:100B80004F4800683C2820DD4D48006864281CDA86
:100B90004B490968A1F13C0003F075FF41EC1A0BC9
:100BA0009FED490B53EC102B03F084FF41EC190B24
:100BB0009FED490B53EC102B03F060FE41EC180B3A
:100BC00003F034FF044601F06DFF3E480068C8287A
:100BD00057D13B48006850281CDA3948006803F0B8
:100BE00052FF41EC1A0B9FED3E0B53EC102B03F020
:100BF00061FF41EC190B9FED3C0B53EC102B04F003
:100C000057F841EC180B03F0E1FE044601F04AFFEF
:100C100037E031E02A480068502807DB28480068A0
:100C2000782803DC322001F03DFF2AE024480068E8
:100C3000782826DD22480068C82822DA2049096879
:100C4000A1F1780003F01FFF41EC1A0B9FED240B7C
:100C500053EC102B03F02EFF41EC190B9FED240BEE
:100C600053EC102B03F00AFE41EC180B03F0AEFE20
:100C7000044601F017FF04E0002011490860114903
:100C800008600121084802F08DFF0121064802F0AA
:100C900075FFBDEC068B10BD380000205000002011
:100CA000300000202C000020001400403400002000
:100CB0004C000020840240423C00002048000020FC
:100CC00040000020440000200000000000C032402E
:100CD0000000000000B08D400000000000006940EE
:100CE000CDCCCCCCCCCCEC3F0000000000A05E40D2
:100CF00000000000000049401CB50121022003F063
:100D000031FC0320009001208DF8040000208DF8B4
:100D1000060003208DF8050001208DF807006946C4
:100D20000E4802F005F901210C4802F07FF902217A
:100D30000A4802F07BF91CBD002009490860704791
:100D4000012007490860704700200549091D086017
:100D5000704701200249091D0860704700040240E5
:100D60008082404210B5FFF7EBFFFFF7EDFF0A204E
:100D700001F0E0FE0020F849086010BD10B5FFF753
:100D8000E8FFFFF7D9FF0A2001F0D4FE0020F24966
:100D9000086010BD10B5FFF7DCFFFFF7D1FF0A2098
:100DA00001F0C8FE0020EC49086010BD10B5FFF747
:100DB000CBFFFFF7C1FF0020E749086010BD10B569
:100DC000FFF7D0FF0120FFF7BEFDFFF7D7FF4FF081
:100DD000FF30FFF7B8FDFFF7DDFF10BD10B5FFF7DF
:100DE000C1FF0220FFF7AFFDFFF7D4FF10BD10B524
:100DF000FFF7B8FF4FF0FF30FFF7A5FDFFF7BEFF8D
:100E00000120FFF7A0FDFFF7C5FF10BD10B5FFF7EC
:100E1000B5FF0120FFF73DFDFFF7A4FF4FF0FF30C6
:100E2000FFF737FDFFF7B6FF10BD10B5FFF7A6FFC0
:100E30000220FFF72EFDFFF7ADFF10BD10B5FFF745
:100E40009DFF4FF0FF30FFF724FDFFF78BFF0120E0
:100E5000FFF71FFDFFF79EFF10BD10B5FFF782FFE4
:100E60000120FFF770FDFFF795FF10BD10B5FFF7EC
:100E700079FF4FF0FF30FFF766FDFFF78BFF10BDE6
:100E800010B5FFF77BFF0120FFF703FDFFF782FF9F
:100E900010BD10B5FFF772FF4FF0FF30FFF7F9FC00
:100EA000FFF778FF10BD10B50120FFF74CFDFFF7ED
:100EB00071FF10BD10B50220FFF745FDFFF76AFF77
:100EC00010BD10B54FF0FF30FFF73DFDFFF762FF9B
:100ED00010BD10B50120FFF7DCFCFFF75BFF10BD74
:100EE00010B50220FFF7D5FCFFF754FF10BD10B579
:100EF0004FF0FF30FFF7CDFCFFF74CFF10BD10B5F2
:100F0000FFF730FF4FF0FF30FFF7C3FCFFF742FF62
:100F100010BD10B5FFF732FF4FF0FF30FFF713FDA4
:100F2000FFF738FF10BD2DE9F04104460D46164687
:100F30001F468A49086800EBD0714910A0EB4101B7
:100F400079BB8749086800EBD0714910A0EB4101DB
:100F500099B9312C02D1FFF7CAFF08E0322C02D137
:100F6000FFF7BEFF03E0332C01D1FFF7B2FF7D484E
:100F7000056001207C4908602FE0312C02D1FFF789
:100F8000B6FF08E0322C02D1FFF7AAFF03E0332CB2
:100F900001D1FFF79EFF7348066001207249086087
:100FA0001BE0FFE76E49086800EBD0714910A0EB29
:100FB000410191B9312C02D1FFF799FF08E0322CA1
:100FC00002D1FFF78DFF03E0332C01D1FFF781FF42
:100FD00064480760012064490860BDE8F0812DE99C
:100FE000F04104460D4616461F465C49086800EB72
:100FF000D0714910A0EB4101002933D1584908684C
:1010000000EBD0714910A0EB4101A9B9FFF70DFF2A
:10101000312C02D1FFF755FF08E0322C02D1FFF747
:1010200049FF03E0332C01D1FFF73DFF4D48056038
:1010300001204D49086034E0FFF7F7FE312C02D162
:10104000FFF73FFF08E0322C02D1FFF733FF03E048
:10105000332C01D1FFF727FF4248066001204249A7
:1010600008601EE03E49086800EBD0714910A0EB13
:101070004101B1B9FFF7D9FEFFF741FF312C02D191
:10108000FFF71FFF08E0322C02D1FFF713FF03E048
:10109000332C01D1FFF707FF3248076001203249A6
:1010A0000860BDE8F0812DE9F04104460D46164682
:1010B0001F462A49086800EBD0714910A0EB410196
:1010C000002935D12649086800EBD0714910A0EB02
:1010D0004101A9B9FFF782FE312C02D1FFF707FFCA
:1010E00008E0322C02D1FFF7FBFE03E0332C01D1E4
:1010F000FFF7EFFE1B48056001201B4908603EE03A
:10110000FFF76CFEFFF705FF312C02D1FFF7EFFE72
:1011100008E0322C02D1FFF7E3FE03E0332C01D1CB
:10112000FFF7D7FE0F48066001200F49086026E050
:101130000B49086800EBD0714910A0EB4101F1B9EF
:10114000FFF74CFE312C02D1FFF7D1FE12E0322C1A
:101150000CD1FFF7C5FE0DE0500000206C00002010
:10116000680000206400002060000020332C01D1C2
:10117000FFF7AFFEF84807600120F8490860BDE8B6
:10118000F0812DE9F04104460D4616461F46F4490C
:10119000086800EBD0714910A0EB410179BBF1491F
:1011A000086800EBD0714910A0EB410199B9312CCE
:1011B00002D1FFF786FE08E0322C02D1FFF77AFE5B
:1011C00003E0332C01D1FFF76EFEE34805600120F8
:1011D000E24908602FE0312C02D1FFF772FE08E0EF
:1011E000322C02D1FFF766FE03E0332C01D1FFF76A
:1011F00070FED94806600120D84908601BE0FFE76F
:10120000D849086800EBD0714910A0EB410191B9B1
:10121000312C02D1FFF755FE08E0322C02D1FFF746
:1012200049FE03E0332C01D1FFF73DFECA480760B9
:101230000120CA490860BDE8F0812DE9F04104466B
:101240000D4616461F46C649086800EBD071491086
:10125000A0EB4101002933D1C249086800EBD071ED
:101260004910A0EB4101A9B9FFF7D0FD312C02D103
:10127000FFF727FE08E0322C02D1FFF71BFE03E048
:10128000332C01D1FFF70FFEB34805600120B349AD
:10129000086032E0FFF7EAFD312C02D1FFF727FEAC
:1012A00008E0322C02D1FFF71BFE03E0332C01D102
:1012B000FFF70FFEA84806600120A84908601CE05F
:1012C000A849086800EBD0714910A0EB4101A1B911
:1012D000FFF7D6FD312C02D1FFF7F3FD08E0322CE9
:1012E00002D1FFF7E7FD03E0332C01D1FFF7DBFD6F
:1012F00099480760012099490860BDE8F0812DE90F
:10130000F04104460D4616461F469549086800EB15
:10131000D0714910A0EB4101002933D191490868EF
:1013200000EBD0714910A0EB4101A9B9FFF747FDCF
:10133000312C02D1FFF7DBFD08E0322C02D1FFF7A0
:10134000CFFD03E0332C01D1FFF7C3FD82480560D8
:1013500001208249086032E0FFF77FFD312C02D185
:10136000FFF7C5FD08E0322C02D1FFF7B9FD03E01D
:10137000332C01D1FFF7ADFD774806600120774996
:1013800008601CE07749086800EBD0714910A0EBB9
:101390004101A1B9FFF77DFD312C02D1FFF791FD8D
:1013A00008E0322C02D1FFF785FD03E0332C01D198
:1013B000FFF779FD68480760012068490860BDE8CB
:1013C000F0813021684A1170552803D0752801D06A
:1013D00051280BD13121644A1170552801D1312097
:1013E00004E0752801D1322000E03320442803D0E6
:1013F000642801D057280BD132215B4A1170442850
:1014000001D1312004E0642801D1322000E03320F2
:10141000422803D0622801D045280BD13321524AFB
:101420001170422801D1312004E0622801D132201C
:1014300000E033204C2803D06C2801D041280BD188
:101440003421494A11704C2801D1312004E06C2824
:1014500001D1322000E03320462803D0662801D095
:1014600053280BD13521404A1170462801D1312033
:1014700004E0662801D1322000E03320522803D056
:10148000722801D05A280BD13621374A11705228C0
:1014900001D1312004E0722801D1322000E0332054
:1014A000704710B504462D480068401C68B92C48A8
:1014B00000682E4908602B4800682D4908602046C6
:1014C000FFF77FFF00202549086005E012230D2269
:1014D00011462046FFF713FF2048006818B922483C
:1014E00000783128F2D005E00C2317221946204657
:1014F000FFF7A3FE1948006818B91B480078322886
:10150000F2D005E004231A4619462046FFF739FEBB
:101510001248006818B9144800783328F2D005E062
:1015200008231A4619462046FFF7BDFD0B48006800
:1015300018B90D4800783428F2D005E006231A4681
:1015400019462046FFF74BFD0448006818B90648C5
:1015500000783528F2D013E06400002060000020FD
:101560006C00002068000020540000202C000020A7
:101570003000002004231A4619462046FFF7D3FC0A
:10158000E348006818B9E34800783628F2D0E2480A
:10159000006810BD10B50446DD480068401C68B9FD
:1015A000DE480068DE490860DE480068DE49086001
:1015B0002046FFF706FF0020D549086005E0162306
:1015C000112211462046FFF79AFED148006818B94B
:1015D000D04800783128F2D005E010230B221946BC
:1015E0002046FFF72AFECA48006818B9C9480078A3
:1015F0003228F2D005E003231A4619462046FFF7A9
:1016000092FCC348006818B9C24800783328F2D069
:1016100005E003231A4619462046FFF7B2FDBC48F1
:10162000006818B9BB4800783428F2D005E00523DB
:101630001A4619462046FFF736FDB548006818B926
:10164000B44800783528F2D005E007231A46194639
:101650002046FFF7C4FCAE48006818B9AD480078D2
:101660003628F2D0AC48006810BD10B50446A84832
:101670000068401C68B9A9480068A9490860A948E1
:101680000068A94908602046FFF79BFE0020A0499A
:10169000086005E00A23152211462046FFF72FFEB9
:1016A0009B48006818B99B4800783128F2D005E0C3
:1016B00014230F2219462046FFF7BFFD9448006807
:1016C00018B9944800783228F2D005E008231A4669
:1016D00019462046FFF783FC8D48006818B98D48ED
:1016E00000783328F2D005E002231A461946204636
:1016F000FFF719FC8648006818B986480078342836
:10170000F2D005E002231A4619462046FFF739FDBC
:101710007F48006818B97F4800783528F2D005E086
:1017200006231A4619462046FFF7BDFC7848006894
:1017300018B9784800783628F2D07748006810BD8C
:1017400010B5044672480068401C68B973480068C8
:101750007349086073480068734908602046FFF7C2
:1017600030FE00206A49086005E00E230922114678
:101770002046FFF7C4FD6648006818B96548007840
:101780003128F2D005E01823132219462046FFF72E
:1017900054FD5F48006818B95E4800783228F2D0DE
:1017A00005E007231A4619462046FFF77CFC5848F7
:1017B000006818B9574800783328F2D005E00523AF
:1017C0001A4619462046FFF70AFC5148006818B926
:1017D000504800783428F2D005E001231A46194613
:1017E0002046FFF7A0FB4A48006818B9494800782E
:1017F0003528F2D005E001231A4619462046FFF7A6
:10180000C0FC4348006818B9424800783628F2D036
:101810004148006810BD70B504460D46012C02D148
:101820002846FFF78DFF022C02D12846FFF71DFF47
:10183000032C02D12846FFF7ADFE042C02D1284626
:10184000FFF72FFE052C02D1284600F06FF8062C7A
:1018500002D1284600F0D5F8072C02D1284600F026
:101860003BF9082C02D1284600F0A1F9092C02D13D
:10187000284600F015FA0A2C02D1284600F07BFA1F
:101880000B2C02D1284600F0E1FA0C2C02D128469C
:1018900000F047FB0D2C02D1284600F0BBFB0E2CBC
:1018A00002D1284600F021FC0F2C02D1284600F07E
:1018B00087FC102C02D1284600F0EDFC112C02D13F
:1018C000284600F061FD122C02D1284600F0C7FD29
:1018D000132C02D1284600F02DFE142C02D12846EC
:1018E00000F093FE152C02D1284600F007FF162CBD
:1018F00002D1284600F06DFF172C02D1284600F0D7
:10190000D3FF182C02D1284601F039F870BD000031
:101910006000002054000020640000206C000020C3
:101920002C000020680000203000002010B5044684
:10193000D4480068401C68B9D3480068D34908609F
:10194000D3480068D34908602046FFF73AFD0020DD
:10195000CC49086005E00E23112219462046FFF706
:101960006CFCC848006818B9CB4800783128F2D020
:1019700005E018230B2211462046FFF7C0FCC148A2
:10198000006818B9C44800783228F2D005E0032373
:101990001A4619462046FFF786FBBA48006818B970
:1019A000BD4800783328F2D005E005231A461946D1
:1019B0002046FFF7E6FBB348006818B9B648007840
:1019C0003428F2D005E005231A4619462046FFF7D1
:1019D000AAFAAC48006818B9AF4800783528F2D0A8
:1019E00005E001231A4619462046FFF7F8FAA548F4
:1019F000006818B9A84800783628F2D0A7480068CF
:101A000010BD10B504469F480068401C68B99E4848
:101A100000689E4908609E4800689E49086020460C
:101A2000FFF7CFFC00209749086005E0122315223C
:101A300019462046FFF701FC9248006818B99648FD
:101A400000783128F2D005E00C230F221146204601
:101A5000FFF755FC8B48006818B98F48007832288A
:101A6000F2D005E004231A4619462046FFF7B7FADC
:101A70008448006818B9884800783328F2D005E017
:101A800002231A4619462046FFF7A9FA7D48006846
:101A900018B9814800783428F2D005E006231A46A8
:101AA00019462046FFF76DFB7648006818B97A485A
:101AB00000783528F2D005E006231A46194620465C
:101AC000FFF731FA6F48006818B973480078362874
:101AD000F2D07248006810BD10B50446694800682D
:101AE000401C68B968480068684908606848006830
:101AF000684908602046FFF764FC002061490860DF
:101B000005E01623092219462046FFF796FB5D489B
:101B1000006818B9604800783128F2D005E0102339
:101B2000132211462046FFF7EAFB5648006818B911
:101B3000594800783228F2D005E007231A461946A2
:101B40002046FFF7F0F94F48006818B9524800786E
:101B50003328F2D005E003231A4619462046FFF742
:101B60003EFA4848006818B94B4800783428F2D04B
:101B700005E001231A4619462046FFF794FA41482A
:101B8000006818B9444800783528F2D005E00723EA
:101B90001A4619462046FFF7F4FA3A48006818B981
:101BA0003D4800783628F2D03C48006810BD10B59A
:101BB000044634480068401C68B93348006833491B
:101BC000086033480068334908602046FFF7F9FB96
:101BD00000202C49086005E00A230D221946204602
:101BE000FFF72BFB2748006818B92B4800783128ED
:101BF000F2D005E01423172211462046FFF77FFBA1
:101C00002048006818B9244800783228F2D005E04E
:101C100008231A4619462046FFF7B3FA1948006808
:101C200018B91D4800783328F2D005E008231A4679
:101C300019462046FFF777F91248006818B9164888
:101C400000783428F2D005E002231A4619462046CF
:101C5000FFF7C5F90B48006818B90F480078352818
:101C6000F2D005E004231A4619462046FFF71BFA76
:101C70000448006818B9084800783628F2D00748A8
:101C8000006810BD600000206C0000202C000020C7
:101C90006800002030000020540000206400002074
:101CA00010B50446D4480068401C68B9D3480068A1
:101CB000D3490860D3480068D34908602046FFF73D
:101CC00080FB0020CC49086005E009231A4619462C
:101CD0002046FFF728F9C848006818B9CB480078B3
:101CE0003128F2D005E013231A4619462046FFF7A3
:101CF000DAF9C148006818B9C44800783228F2D02F
:101D000005E00D23072211462046FFF7F8FABA48EE
:101D1000006818B9BD4800783328F2D005E01123D7
:101D20001A4619462046FFF75AF9B348006818B911
:101D3000B64800783428F2D005E015230122194670
:101D40002046FFF77AFAAC48006818B9AF48007827
:101D50003528F2D005E009231A4619462046FFF738
:101D600010FAA548006818B9A84800783628F2D0BB
:101D7000A748006810BD10B504469F480068401C85
:101D800068B99E4800689E4908609E4800689E4960
:101D900008602046FFF715FB00209749086005E022
:101DA0000A231A4619462046FFF7EBF992480068C5
:101DB00018B9964800783128F2D005E014231A4665
:101DC00019462046FFF70BF98B48006818B98F4871
:101DD00000783228F2D005E008231622114620466A
:101DE000FFF78DFA8448006818B9884800783328CE
:101DF000F2D005E00A231A4619462046FFF793F869
:101E00007D48006818B9814800783428F2D005E090
:101E100002230E2219462046FFF70FFA7648006883
:101E200018B97A4800783528F2D005E012231A460E
:101E300019462046FFF737F96F48006818B973480C
:101E400000783628F2D07248006810BD10B50446FC
:101E500069480068401C68B96848006868490860BB
:101E600068480068684908602046FFF7AAFA002021
:101E70006149086005E011231A4619462046FFF71C
:101E800012F95D48006818B9604800783128F2D02E
:101E900005E00B231A4619462046FFF744F856483A
:101EA000006818B9594800783228F2D005E01723A5
:101EB000032211462046FFF722FA4F48006818B95E
:101EC000524800783328F2D005E00B231A46194611
:101ED0002046FFF756F94848006818B94B48007883
:101EE0003428F2D005E00F23052219462046FFF7DB
:101EF000A4F94148006818B9444800783528F2D060
:101F000005E013231A4619462046FFF768F83A48B9
:101F1000006818B93D4800783628F2D03C4800687F
:101F200010BD10B5044634480068401C68B93348F9
:101F30000068334908603348006833490860204628
:101F4000FFF73FFA00202C49086005E012231A46EB
:101F500019462046FFF743F82748006818B92B4870
:101F600000783128F2D005E00C231A4619462046A5
:101F7000FFF707F92048006818B92448007832288C
:101F8000F2D005E00423102211462046FFF7B7F9EE
:101F90001948006818B91D4800783328F2D005E0C8
:101FA00014231A4619462046FFF77DF812480068A8
:101FB00018B9164800783428F2D005E00623182214
:101FC00019462046FFF739F90B48006818B90F4841
:101FD00000783528F2D005E00C231A461946204631
:101FE000FEF7A1FF0448006818B9084800783628B1
:101FF000F2D00748006810BD600000206C0000208F
:102000002C00002068000020300000205400002038
:102010006400002010B50446D4480068401C68B92C
:10202000D3480068D3490860D3480068D3490860A2
:102030002046FFF7C6F90020CC49086005E00D23D3
:102040001A4619462046FEF76EFFC848006818B9C0
:10205000CB4800783128F2D005E017231A461946FC
:102060002046FFF720F8C148006818B9C448007836
:102070003228F2D005E00D231A4619462046FFF714
:1020800080F8BA48006818B9BD4800783328F2D003
:1020900005E01123022211462046FFF730F9B3482C
:1020A000006818B9B64800783428F2D005E0152346
:1020B0001A4619462046FEF792FFAC48006818B948
:1020C000AF4800783528F2D005E0092304221946EC
:1020D0002046FFF7B2F8A548006818B9A84800786C
:1020E0003628F2D0A748006810BD10B504469F48B6
:1020F0000068401C68B99E4800689E4908609E4878
:1021000000689E4908602046FFF75BF90020974968
:10211000086005E00E231A4619462046FFF731F8FD
:102120009248006818B9964800783128F2D005E046
:1021300018231A4619462046FEF751FF8B480068BF
:1021400018B98F4800783228F2D005E016231A46D5
:1021500019462046FEF7A7FF8448006818B988484A
:1021600000783328F2D005E005230A2211462046E4
:10217000FFF707F87D48006818B9814800783428CF
:10218000F2D005E00E231A4619462046FEF7CBFE94
:102190007648006818B97A4800783528F2D005E00A
:1021A0000123122219462046FFF747F86F480068BE
:1021B00018B9734800783628F2D07248006810BD0C
:1021C00010B5044669480068401C68B96848006852
:1021D0006849086068480068684908602046FFF759
:1021E000F0F800206149086005E015231A461946F9
:1021F0002046FEF758FF5D48006818B9604800782F
:102200003128F2D005E00F231A4619462046FEF782
:102210008AFE5648006818B9594800783228F2D02A
:1022200005E017231A4619462046FEF7D8FE4F4808
:10223000006818B9524800783328F2D005E00B2323
:10224000022211462046FFF75AF84848006818B99C
:102250004B4800783428F2D005E00F231A4619467F
:102260002046FEF78EFF4148006818B944480078C0
:102270003528F2D005E01323062219462046FEF742
:10228000DCFF3A48006818B93D4800783628F2D09B
:102290003C48006810BD10B5044634480068401C36
:1022A00068B93348006833490860334800683349E7
:1022B00008602046FFF785F800202C49086005E0FB
:1022C00016231A4619462046FEF789FE274800685D
:1022D00018B92B4800783128F2D005E010231A46AF
:1022E00019462046FEF74DFF2048006818B92448DB
:1022F00000783228F2D005E010231A46194620460D
:10230000FEF711FE1948006818B91D4800783328F7
:10231000F2D005E00323142211462046FEF7EFFF1A
:102320001248006818B9164800783428F2D005E041
:1023300018231A4619462046FEF7B5FE0B480068DA
:1023400018B90F4800783528F2D005E007230C2291
:1023500019462046FEF771FF0448006818B908487E
:1023600000783628F2D00748006810BD60000020D1
:102370006C0000202C0000206800002030000020AD
:10238000540000206400002010B50446D4480068C2
:10239000401C68B9D3480068D3490860D348006836
:1023A000D34908602046FFF70CF80020CC490860AC
:1023B00005E011231A4619462046FEF7B4FDC84829
:1023C000006818B9CB4800783128F2D005E00B231B
:1023D0001A4619462046FEF766FEC148006818B93D
:1023E000C44800783228F2D005E00D2303221946B4
:1023F0002046FEF722FFBA48006818B9BD480078A9
:102400003328F2D005E011231A4619462046FEF77C
:102410008AFDB348006818B9B64800783428F2D06D
:1024200005E01523052211462046FEF768FFAC485B
:10243000006818B9AF4800783528F2D005E00923C4
:102440001A4619462046FEF7CAFDA548006818B985
:10245000A84800783628F2D0A748006810BD10B50B
:1024600004469F480068401C68B99E4800689E4921
:1024700008609E4800689E4908602046FEF7A1FF5C
:1024800000209749086005E012231A4619462046A5
:10249000FEF777FE9248006818B996480078312810
:1024A000F2D005E00C231A4619462046FEF797FDA8
:1024B0008B48006818B98F4800783228F2D005E0C0
:1024C0000423162219462046FEF7B7FE844800680A
:1024D00018B9884800783328F2D005E00A231A4654
:1024E00019462046FEF7DFFD7D48006818B981488F
:1024F00000783428F2D005E006230E22114620464B
:10250000FEF7FDFE7648006818B97A48007835284D
:10251000F2D005E012231A4619462046FEF703FDC5
:102520006F48006818B9734800783628F2D07248AE
:10253000006810BD10B5044669480068401C68B9C1
:102540006848006868490860684800686849086029
:102550002046FEF736FF00206149086005E00923A8
:102560001A4619462046FEF79EFD5D48006818B9D8
:10257000604800783128F2D005E013231A46194646
:102580002046FEF7D0FC5648006818B95948007834
:102590003228F2D005E01723072219462046FEF71D
:1025A0004CFE4F48006818B9524800783328F2D0E2
:1025B00005E00B231A4619462046FEF710FD484851
:1025C000006818B94B4800783428F2D005E00F2392
:1025D000012211462046FEF792FE4148006818B9D4
:1025E000444800783528F2D005E013231A461946EE
:1025F0002046FEF7C6FD3A48006818B93D48007805
:102600003628F2D03C48006810BD10B50446344866
:102610000068401C68B93348006833490860334893
:102620000068334908602046FEF7CBFE00202C49A5
:10263000086005E00A231A4619462046FEF7CFFC3B
:102640002748006818B92B4800783128F2D005E0F7
:1026500014231A4619462046FEF793FD20480068C9
:1026600018B9244800783228F2D005E00823102257
:1026700019462046FEF7E1FD1948006818B91D48C3
:1026800000783328F2D005E014231A461946204674
:10269000FEF749FC1248006818B91648007834283B
:1026A000F2D005E00223182211462046FEF727FE4D
:1026B0000B48006818B90F4800783528F2D005E0BB
:1026C0000C231A4619462046FEF7EDFC0448006824
:1026D00018B9084800783628F2D00748006810BDBD
:1026E000600000206C0000202C000020680000200A
:1026F00030000020540000206400002010B5044683
:10270000D4480068401C68B9D3480068D3490860C1
:10271000D3480068D34908602046FEF752FE0020E7
:10272000CC49086005E015231A4619462046FEF7F5
:10273000FAFBC848006818B9CB4800783128F2D0B5
:1027400005E00F231A4619462046FEF7ACFCC148A7
:10275000006818B9C44800783228F2D005E00D238B
:102760001A4619462046FEF73AFCBA48006818B9DE
:10277000BD4800783328F2D005E011230222194623
:102780002046FEF75AFDB348006818B9B6480078ED
:102790003428F2D005E015231A4619462046FEF7E4
:1027A000F0FCAC48006818B9AF4800783528F2D082
:1027B00005E00923062211462046FEF7A0FDA548A4
:1027C000006818B9A84800783628F2D0A7480068F1
:1027D00010BD10B504469F480068401C68B99E486B
:1027E00000689E4908609E4800689E49086020462F
:1027F000FEF7E7FD00209749086005E016231A461A
:1028000019462046FEF7BDFC9248006818B9964864
:1028100000783128F2D005E010231A4619462046E8
:10282000FEF7DDFB8B48006818B98F480078322826
:10283000F2D005E016231A4619462046FEF773FB30
:102840008448006818B9884800783328F2D005E039
:1028500003230A2219462046FEF7EFFC7D48006854
:1028600018B9814800783428F2D005E00E231A46C2
:1028700019462046FEF717FC7648006818B97A48D2
:1028800000783528F2D005E012231A461946204672
:10289000FEF735FD6F48006818B973480078362890
:1028A000F2D07248006810BD10B50446694800684F
:1028B000401C68B968480068684908606848006852
:1028C000684908602046FEF77CFD002061490860E9
:1028D00005E00D231A4619462046FEF7E4FB5D4845
:1028E000006818B9604800783128F2D005E0172355
:1028F0001A4619462046FEF716FB5648006818B9D6
:10290000594800783228F2D005E017231A461946B4
:102910002046FEF736FC4F48006818B95248007848
:102920003328F2D005E00B23082219462046FEF793
:1029300084FC4848006818B94B4800783428F2D025
:1029400005E00F231A4619462046FEF748FB41488A
:10295000006818B9444800783528F2D005E0132300
:10296000042211462046FEF7CAFC3A48006818B90E
:102970003D4800783628F2D03C48006810BD10B5BC
:10298000044634480068401C68B93348006833493D
:10299000086033480068334908602046FEF711FD9F
:1029A00000202C49086005E00E231A4619462046EF
:1029B000FEF715FB2748006818B92B480078312826
:1029C000F2D005E018231A4619462046FEF7D9FB37
:1029D0002048006818B9244800783228F2D005E071
:1029E00010231A4619462046FEF75DFB1948006879
:1029F00018B91D4800783328F2D005E005231422C9
:102A000019462046FEF719FC1248006818B9164806
:102A100000783428F2D005E018231A4619462046DB
:102A2000FEF781FA0B48006818B90F48007835287E
:102A3000F2D005E001230C2211462046FEF75FFC90
:102A40000448006818B9084800783628F2D00748CA
:102A5000006810BD600000206C0000202C000020E9
:102A60006800002030000020540000206400002096
:102A700010B504466FF0040000F0B6F9E11704EB5E
:102A80005171C1F3C701394A11701046007800EB4B
:102A90004001C1EBC0104FF6FF7101EAC00034499C
:102AA000088010BD0146314A12784A434FF0E023B6
:102AB0005A6100229A611A46126942F001021A61B3
:102AC00000BF4FF0E022106900F001021AB100F4DB
:102AD0008032002AF5D04FF0E022126922F0010284
:102AE0004FF0E0231A6100229A6170470146204AA4
:102AF00012884A434FF0E0235A6100229A611A4635
:102B0000126942F001021A6100BF4FF0E022106921
:102B100000F001021AB100F48032002AF5D04FF023
:102B2000E022126922F001024FF0E0231A61002234
:102B30009A61704770B504464FF4077094FBF0F04B
:102B4000C6B24FF4077094FBF0F100FB114085B260
:102B500005E04FF40770FFF7C9FF701EC6B2002EE4
:102B6000F7D115B12846FFF7C1FF70BD70000020F6
:102B70007200002000BF704700BF5C4A128802F05C
:102B80004002002AF9D0C2B2584B9A80704710B563
:102B900088B004460121084601F0E4FC0121102020
:102BA00001F03AFD07220921514800F04CFA0722B2
:102BB0000A214F4800F047FA4FF4C0600690022007
:102BC0008DF81C008DF81D0000208DF81E000120DE
:102BD0008DF81F0006A9464800F0AAF902940020CB
:102BE000ADF80C00ADF80E00ADF81000ADF8140013
:102BF0000C20ADF8120002A93C4801F016F90121A1
:102C00003A4801F09AF9012240F22551374801F083
:102C10004AFA25208DF8040003208DF805008DF870
:102C2000060001208DF8070001A800F090F808B018
:102C300010BD10B5044621462C4801F0A9F900BF8B
:102C400080212A4801F054FA0028F9D010BD294803
:102C50000078704728480078012804D100202649D0
:102C60000870012070470020FCE710B540F22551A4
:102C70001E4801F053FA28B31C4801F08DF9C4B284
:102C800001201D4908701D48008800F40040C8B9A3
:102C90001A48008800F4804060B10A2C03D000205C
:102CA0001649088020E01548008840F40040134988
:102CB000088019E00D2C06D11048008840F48040AF
:102CC0000E49088010E00D480088C0F30D000C4943
:102CD0000C540A480088401C0849088008460088AF
:102CE000C72801DD0020088010BD00000010014051
:102CF000000002407A0000207B00002078000020C5
:102D00008C0100200948804709480047FEE7FEE79C
:102D1000FEE7FEE7FEE7FEE7FEE7FEE7FEE7FEE78B
:102D200004480549054A064B704700009504000811
:102D300089010008B8020020B8080020B80400206B
:102D4000B804002032490143324A1160704770B51F
:102D5000002100230F22C4781CB32E4C246804F4F5
:102D6000E064C4F5E064C4F30721C1F10404E3B2F4
:102D70000A4144789C40E1B28478144021430C0716
:102D8000210E254C05786155047804F01F050124B7
:102D9000AC4005786D11AD0005F1E025C5F80041A6
:102DA00009E0047804F01F050124AC401B4D0678AF
:102DB000761145F8264070BD194A0A400243154B6A
:102DC0001B1F1A60704739B1124A121D1268024364
:102DD000104B1B1D1A6006E00E4A121D126882433A
:102DE0000C4B1B1D1A607047042808D14FF0E021DE
:102DF000096941F004014FF0E022116107E04FF052
:102E0000E021096921F004014FF0E02211617047CF
:102E10000000FA050CED00E000E400E080E100E0D5
:102E200080FFFF1F10B504469848844208D1012155
:102E3000084601F002FC0021012001F0FEFB76E0D3
:102E40009348844208D10121022001F0F6FB0021C1
:102E5000022001F0F2FB6AE08E48844208D1012191
:102E6000042001F0EAFB0021042001F0E6FB5EE013
:102E70008948844208D10121082001F0DEFB0021AD
:102E8000082001F0DAFB52E08448844208D1012195
:102E9000102001F0D2FB0021102001F0CEFB46E013
:102EA0007F48844208D10121202001F0C6FB002187
:102EB000202001F0C2FB3AE07A48844208D1012187
:102EC000402001F0BAFB0021402001F0B6FB2EE0CB
:102ED0007548844208D10121802001F0AEFB002119
:102EE000802001F0AAFB22E07048844208D1012131
:102EF000801501F0A2FB0021A01501F09EFB16E059
:102F00006B48844208D10121401501F096FB002155
:102F1000601501F092FB0AE06648844207D1012166
:102F2000001501F08AFB0021201501F086FB10BD81
:102F3000F0B50A4600210023002400BF3DE0012532
:102F400005FA01F3156805EA03049C4234D10568CB
:102F50004F000326BE40B543056015794E00B540CD
:102F60000668354305601579012D02D01579022DCB
:102F700016D185684F000326BE40B543856055795C
:102F80004E00B540866835438560456801268E4011
:102F9000B5434560456896798E40B6B23543456085
:102FA000C5684F000326BE40B543C560D5794E00C5
:102FB000B540C6683543C560491C1029BFD3F0BD74
:102FC0004FF6FF7101600021017141718171C17182
:102FD000704708B54FF480320092009A0A4300927D
:102FE000009AC261C161009AC261C2690092C2695D
:102FF000009208BD0246002013690B400BB101206E
:1030000000E0002070470146086980B27047024620
:10301000002053690B400BB1012000E000207047F5
:103020000146486980B27047018370474183704709
:103030000AB1018300E041837047416170474269F2
:103040004A4042617047F0B5002300244D07ED0E61
:1030500002FA05F3CE1000F1200555F826504E0770
:10306000F70E0F26BE40B543CF1000F1200646F8FC
:103070002750CE1000F1200555F8265045EA0304EC
:10308000CE1000F1200545F82640F0BD00000240BA
:103090000004024000080240000C02400010024000
:1030A0000014024000180240001C024000200240B0
:1030B000002402400028024010B50446FE48844225
:1030C00008D10121084601F0FCFA0021012001F09D
:1030D000F8FA9DE0B4F1804F08D10121084601F0D3
:1030E000DFFA0021012001F0DBFA91E0F34884428D
:1030F00008D10121022001F0D3FA0021022001F0C1
:10310000CFFA85E0EE48844208D10121042001F085
:10311000C7FA0021042001F0C3FA79E0E9488442AB
:1031200008D10121082001F0BBFA0021082001F09C
:10313000B7FA6DE0E448844208D10121102001F083
:10314000AFFA0021102001F0ABFA61E0DF488442C1
:1031500008D10121202001F0A3FA0021202001F054
:103160009FFA55E0DA48844208D10121022001F09B
:10317000A8FA0021022001F0A4FA49E0D5488442CF
:1031800009D10121080401F09CFA00214FF480309C
:1031900001F097FA3CE0D048844209D1012148046B
:1031A00001F08FFA00214FF4003001F08AFA2FE08D
:1031B000CA48844209D10121880401F082FA002121
:1031C0004FF4802001F07DFA22E0C548844208D106
:1031D0000121402001F064FA0021402001F060FA52
:1031E00016E0C048844208D10121802001F058FA3D
:1031F0000021802001F054FA0AE0BB48844207D144
:103200000121801501F04CFA0021A01501F048FAC7
:1032100010BD00220288A84B98420ED0AC4B9842B9
:103220000BD0B0F1804F08D0A44B984205D0A44BEE
:10323000984202D0A34B984204D14FF68F731A40A4
:103240004B881A43A04B984207D0A04B984204D019
:103250004FF6FF431A400B891A4302804B68C36242
:103260000B880385944B984202D0994B984201D128
:103270008B7A03860123838270474FF0FF314160D0
:103280000021018001814180817270470185828225
:1032900070470A46002101884FF68F731940114389
:1032A0000180704741627047C16270470146486AB9
:1032B00070470146088D704721B1028842F0020232
:1032C000028004E002884FF6FD731A4002807047C6
:1032D00021B1028842F00402028004E002884FF625
:1032E000FB731A400280704721B1028842F08002CD
:1032F000028004E002884FF67F731A400280704714
:1033000002884FF6F7731A40028002880A4302804F
:10331000704702884FF6FF431A40028002880A4332
:103320000280704721B1028842F00102028004E06D
:1033300002884FF6FE731A400280704770B5002471
:1033400000220023058C4FF6FE7635400584028C62
:103350008388048B4FF68F752C40B51E2C400D884A
:103360002C43751E2A408D892A434D882A43524D8D
:10337000A84202D0564DA84213D14FF6F7752A4005
:10338000CD892A434FF6FB752A408D882A434FF694
:10339000FF652B404FF6FF552B400D8A2B434D8A7E
:1033A0002B43838004838D684563028470BD70B5B0
:1033B000002400220023058C4FF6EF76354005846B
:1033C000028C8388048B48F6FF752C404FF6FF452E
:1033D0002C400D884FF6FF7606EA05252C434FF664
:1033E000DF752A408D8906EA05152A434D8806EACD
:1033F00005152A43304DA84202D0354DA8421DD1B3
:103400004FF67F752A40CD894FF6FF7606EA0515FF
:103410002A434FF6BF752A408D8806EA05152A43D0
:103420004FF6FF352B404FF2FF752B400D8A06EA11
:1034300085052B434D8A06EA85052B43838004834B
:103440008D688563028470BD70B50024002200235E
:10345000058C4FF6FF6635400584028C8388848B8B
:103460004FF68F752C404FF6FC752C400D882C4381
:103470004FF6FF552A408D894FF6FF7606EA05255F
:103480002A434D8806EA05252A430B4DA84202D05F
:103490000F4DA84238D14FF2FF752A40CD894FF623
:1034A000FF7606EA05252A434FF6FF352A408D8828
:1034B00006EA05252A4319E0000001400004004007
:1034C00000080040000C00400010004000140040C4
:1034D0000004014000400140004401400048014018
:1034E00000180040001C0040002000404EF6FF7510
:1034F0002B404DF6FF752B400D8A06EA05152B4330
:103500004D8A06EA05152B43838084838D68C56345
:10351000028470BD70B5002200230024058C4EF695
:10352000FF7635400584038C8488828B48F6FF75CE
:103530002A404FF6FF452A400D884FF6FF7606EAEF
:1035400005252A434DF6FF752B408D8906EA053582
:103550002B434D8806EA05352B43FE4DA84202D089
:10356000FD4DA84208D14BF6FF752C400D8A4FF651
:10357000FF7606EA85152C43848082838D68056476
:10358000038470BD00210180418081808160818140
:10359000C18101824182704770B50346002000243A
:1035A0001846183001258D40ACB21D8CA5431D84F2
:1035B00009B108290AD100EB610005684FF68F7642
:1035C000354005600568154305600FE00D1FC5F324
:1035D0004E052844056848F6FF76354005600568C5
:1035E0004FF6FF7606EA02263543056070BD41635B
:1035F000704781637047C1637047016470470A4632
:103600000021018B4FF68F731940114301837047DE
:103610000A460021018B48F6FF7319404FF6FF73ED
:1036200003EA02231943018370470A460021818B74
:103630004FF68F7319401143818370470A4600216A
:10364000818B48F6FF7319404FF6FF7303EA02239C
:103650001943818370470A460021018B4FF6F773A7
:1036600019401143018370470A460021018B4FF234
:10367000FF7319404FF6FF7303EA022319430183D6
:1036800070470A460021818B4FF6F77319401143AA
:10369000818370470A460021818B4FF2FF731940E6
:1036A0004FF6FF7303EA02231943818370470A46EA
:1036B0000021018B4FF6FB731940114301837047C2
:1036C0000A460021018B4FF6FF3319404FF6FF7376
:1036D00003EA02231943018370470A460021818BC4
:1036E0004FF6FB7319401143818370470A4600214E
:1036F000818B4FF6FF3319404FF6FF7303EA022325
:103700001943818370470A460021018B4FF67F736E
:1037100019401143018370470A460021018BC1F310
:103720000E014FF6FF7303EA02231943018370472A
:103730000A460021818B4FF67F7319401143818324
:1037400070470A460021818BC1F30E014FF6FF73CB
:1037500003EA02231943818370470A460021018C42
:103760004FF6FD7319401143018470470A4600214A
:10377000018C4FF6F77319401143018470470A46D4
:103780000021018C4FF6DF7319404FF6FF7303EAF7
:1037900002131943018470470A460021018C4FF639
:1037A0007F7319404FF6FF7303EA02131943018434
:1037B00070470A460021018C4FF6FF5319404FF61F
:1037C000FF7303EA02231943018470470A4600216C
:1037D000018C4FF2FF7319404FF6FF7303EA022387
:1037E0001943018470470A460021018C4DF6FF738E
:1037F00019404FF6FF7303EA0233194301847047FF
:1038000030B5002301248C40A3B2048C9C43048473
:10381000048C02FA01F5ADB22C43048430BD30B5FE
:10382000002304248C40A3B2048C9C430484048CA5
:1038300002FA01F5ADB22C43048430BD828B4FF205
:10384000FF331A408283828B4FF6FF7303EA012312
:103850001A4382837047F0B50C46154600210022BA
:103860000026078C4EF6FF7C07EA0C070784818B45
:10387000028C4FF6FF7707EA043640F6FF473940DF
:103880004FF6FF7707EA052739434FF6FF7707EA38
:103890000337394345F6FF773A4046F480573A43B9
:1038A00081830284F0BD828B4FF6F3731A408283CA
:1038B000828B0A4382837047F0B50C46154600217F
:1038C00000220026078C4FF6FF6C07EA0C070784DE
:1038D000818B028C4FF6FF7707EA04264FF60C77B0
:1038E00039404FF6FF7707EA03172F4339434FF26A
:1038F000FF573A4046F480773A4381830284F0BD13
:10390000028B4FF2FF331A400283028B4FF6FF7394
:1039100003EA01231A4302837047F0B50C461546AB
:10392000002100220026078C4FF6EF7C07EA0C07E7
:103930000784018B028C4FF6FF7707EA041640F6E6
:10394000FF4739404FF6FF7707EA033739434FF611
:10395000FF7703E0000001400004014007EA05276B
:1039600039434FF65F773A4046F010073A430183F8
:103970000284F0BD028B4FF6F3731A400283028B70
:103980000A4302837047F0B50C4615460021002219
:10399000068C4FF6FE773E400684018B028C4FF674
:1039A0000C7631407E1C06EA03162E4331434FF657
:1039B000F576324044F00106324301830284F0BDC3
:1039C00070B505460C46208850B92389A2886188C5
:1039D0002846FFF7D8FFE1882846FFF7CBFF25E010
:1039E000208804280AD12389A28861882846FFF705
:1039F00094FFE1882846FFF783FF17E02088082816
:103A00000AD12389A28861882846FFF755FFE188FB
:103A10002846FFF748FF09E02389A28861882846E5
:103A2000FFF719FFE1882846FFF708FF70BD002166
:103A300001804180012181800021C1800181704786
:103A40002DE9F04105460C4600260127608808B99B
:103A5000022600E00026A088012801D1022700E00C
:103A600001272088A0B92389A28861882846FFF70A
:103A70008AFFE1882846FFF77DFF23893A463146D1
:103A80002846FFF74AFFE1882846FFF739FF13E091
:103A90002389A28861882846FFF73FFFE1882846EE
:103AA000FFF72EFF23893A4631462846FFF76BFF82
:103AB000E1882846FFF75EFFBDE8F0810146486BCC
:103AC00070470146886B70470146C86B70470146D6
:103AD000086C70470A884B881A438B881A43CB8836
:103AE0001A430B891A434B891A438B891A43A0F84E
:103AF000442070470021018041808180C180018184
:103B000041818181704731B1B0F8442042F40042D4
:103B1000A0F8442005E0B0F84420C2F30E02A0F85B
:103B20004420704721B1828842F00402828004E080
:103B300082884FF6FB731A408280704721B18288D9
:103B400042F00102828004E082884FF6FE731A4040
:103B5000828070471AB183890B43838102E0838995
:103B60008B43838170478182704702460020138A0D
:103B70000B400BB1012000E000207047CA430282D5
:103B8000704730B50246002000230024158A05EA5C
:103B90000103958905EA010413B10CB1012000E08D
:103BA000002030BDCA430282704741EA0203A0F8F8
:103BB000483070471AB183890B43838102E08389BF
:103BC0008B438381704721B1828842F00802828052
:103BD00004E082884FF6F7731A40828070470189AB
:103BE0004FF6F8721140018170470A4600210189A1
:103BF0004FF68F73194011430181704730B5044669
:103C00000D4629462046FFF7F0FF208940F00700C7
:103C1000208130BD2DE9F04104460D4616461F4671
:103C2000602D06D13B46012231462046FFF775FE46
:103C300005E03B46012231462046FFF7A4FE294617
:103C40002046FFF7D2FF208940F007002081BDE821
:103C5000F08130B50C4600210189C9B24FF6FF75DD
:103C600005EA0325154325432943018130BD2DE98C
:103C7000F04105460E4617469846002443463A460C
:103C800031462846FFF7E5FF2C894FF6F8700440CF
:103C900044F007044FF68F70044044F070042C8108
:103CA000BDE8F081F0B504460D4616461F463B467A
:103CB000324629462046FFF7CCFF208940F4804059
:103CC0002081F0BD82884FF68F731A4082808288EF
:103CD0000A438280704702894FF6F8731A400281C6
:103CE00002890A430281704702894FF67F731A40A6
:103CF000028102890A4302817047F0B50C461546DD
:103D00001E460021002200230189028B038C4FF6FE
:103D1000F877394021434FF6FC473A4040F201170B
:103D20003A434FF6DD773B404FF6FF7707EA061739
:103D30002F433B43018102830384F0BD21B182887C
:103D400042F08002828004E082884FF67F731A403E
:103D500082807047A0F850107047000010B50446EC
:103D6000FA48844208D10121102000F0AAFC002169
:103D7000102000F0A6FC57E0F548844209D101214B
:103D8000480400F08DFC00214FF4003000F088FC66
:103D90004AE0F048844209D10121880400F080FC07
:103DA00000214FF4802000F07BFC3DE0EA48844293
:103DB00009D10121C80400F073FC00214FF4002058
:103DC00000F06EFC30E0E548844209D1012108058D
:103DD00000F066FC00214FF4801000F061FC23E04D
:103DE000DF48844208D10121202000F06AFC002134
:103DF000202000F066FC17E0DA48844209D1012156
:103E0000880700F04DFC00214FF0804000F048FC96
:103E10000AE0D548844207D10121400500F040FC6A
:103E20000021600500F03CFC10BD2DE9FF47054670
:103E30000E460024A14600BFA046B08900B100BFD5
:103E40002C8A24F44054F08804432C82AC8941F23B
:103E50000C608443B0883189084371890843044366
:103E6000AC81AC8A24F44074B0890443AC826846C7
:103E700000F0A7FAB548854202D0B948854202D180
:103E8000DDF80C9001E0DDF80890A88900F400400E
:103E900040B109EBC90000EB091031684900B0FBE3
:103EA000F1F707E009EBC90000EB09103168890060
:103EB000B0FBF1F76420B7FBF0F0040120096421A6
:103EC00001FB1078A88900F4004040B1322000EBDB
:103ED000C800B0FBF1F000F00700044308E0322016
:103EE00000EB08106421B0FBF1F000F00F00044378
:103EF0002C81BDE8FF874FF41651016000218180BD
:103F0000C18001810C21418100218181704710B560
:103F100002460020108A20F470600B884C882343EE
:103F20008C882343CC8823431843108210BD002182
:103F3000018041808180C180704721B1828942F433
:103F40000052828104E082894DF6FF731A4082811B
:103F50007047028B02F47F420283028B0A43028382
:103F6000704721B1828942F40042828103E0828954
:103F7000C2F30E028281704721B1828A42F400624C
:103F8000828204E0828A4FF2FF731A408282704775
:103F9000C1F308028280704701468888C0F3080098
:103FA0007047028A4FF6F0731A400282028A0A436F
:103FB0000282704721B1828942F00202828104E0CC
:103FC00082894FF6FD731A408281704782894FF2D1
:103FD000FF731A40828182890A4382817047028A74
:103FE0004FF6DF731A400282028A0A430282704748
:103FF00021B1028A42F48042028204E0028A4BF636
:10400000FF731A4002827047818941F0010181816A
:10401000704721B1828A42F00802828204E0828ADB
:104020004FF6F7731A4082827047028BD2B2028336
:10403000028B42EA01220283704721B1828A42F058
:104040002002828204E0828A4FF6DF731A40828265
:10405000704721B1828A42F01002828204E0828A93
:104060004FF6EF731A4082827047828A4FF6FB73D5
:104070001A408282828A0A438282704721B1828AF0
:1040800042F00202828204E0828A4FF6FD731A40F7
:10409000828270471AB1838A0B43838202E0838A4B
:1040A0008B4383827047F0B5034600240026002529
:1040B000002040F66A17B94200D100BF1846C1F38C
:1040C000421401F01F06012707FA06F5012C01D161
:1040D0000C3004E0022C01D1103000E014301AB191
:1040E00007682F43076002E00768AF430760F0BD31
:1040F00002460020B1F5007F00D100BF13880B40BD
:104100000BB1012000E00020704701F40072B2F50D
:10411000007F00D100BFCA430280704770B50246DD
:10412000002400230025002040F66A16B14200D189
:1041300000BFC1F3421501F01F03012606FA03F385
:10414000012D13D19689334017E000000010014083
:104150000044004000480040004C00400050004037
:104160000014014000780040007C0040022D02D184
:10417000168A334001E0968A33400C12012606FA73
:1041800004F41688344013B10CB1012000E0002083
:1041900070BD10B50022002340F66A14A14200D180
:1041A00000BF0A1201249440A3B2DC43048010BD76
:1041B000F948006840F00100F74908600020F6491E
:1041C00008310860F4480068F4490840F249086082
:1041D000F348091D0860F348EF4984310860F0484E
:1041E0001038091D0860EC48006820F48020EA4976
:1041F00008600020E8490C310860E7498C3108600C
:1042000070470021E44A921C1170114608707047F3
:1042100010B501460022002300204A11012A02D1D4
:10422000DD4C236808E0022A03D1DB4C703423689C
:1042300002E0D94C7434236801F01F020124944039
:104240001C400CB1012000E0002010BD38B500205A
:1042500000900024002500BF3120FFF7D9FF05465C
:104260000098401C00900098B0F5A04F01D0002DA0
:10427000F2D03120FFF7CCFF08B1012400E0002488
:10428000204638BD01460020C34A106820F0F800DF
:1042900040EAC10010607047C349086070470021C0
:1042A000BD4A703211701170012802D004280AD161
:1042B00004E00121B84A7032117005E00521B64AC8
:1042C0007032117000E000BF00BF7047B74908604E
:1042D000704770B5049C41EA82150126C6EB53066F
:1042E00045EA0645054345EA0465AB4E361D356093
:1042F00070BDAD4908667047820142EA0172A64B63
:1043000084331A607047A8498866704710B58301E6
:1043100043EA016343EA02739F4C8834236010BD73
:10432000A14908677047A049C86470470246002049
:10433000994B0833186820F0EC6042EA01031843F7
:10434000954B08331860704702460020924B0833A3
:10435000186820F0784042EA010318438E4B083376
:1043600018607047014600208B4A0832106820F020
:10437000030008431060704787480830006800F069
:104380000C00704701460020834A0832106820F074
:10439000F000084310607047014600207E4A083252
:1043A000106820F4E0500843106070470146002078
:1043B000794A0832106820F4604040EAC100106079
:1043C0007047F0B5002100220024022500260223B8
:1043D000714F08373F6807F00C0121B1042905D05F
:1043E000082937D105E0724F076036E0714F07604A
:1043F00033E0694F3F1D3F68C7F38056664F3F1D4E
:104400003F6807F03F036EB16A4FB7FBF3F7DFF881
:1044100088C10CF1040CDCF800C0CCF3881C07FB4D
:104420000CF40CE0624FB7FBF3F7DFF86CC10CF152
:10443000040CDCF800C0CCF3881C07FB0CF4564FCE
:104440003F1D3F68C7F301477F1C7D00B4FBF5F7B4
:10445000076002E0564F076000BF00BF4E4F0837AD
:104460003F6807F0F0010909534F7A5C0768D740AD
:104470004760494F08373F6807F4E051890A4E4FBB
:104480007A5C4768D7408760434F08373F6807F436
:104490006041490B484F7A5C4768D740C760F0BD20
:1044A000002100F44072B2F5407F0AD13A4A083246
:1044B000116821F4F811414A02401143364A08328A
:1044C0001160354A70321268C0F30B031A43324B45
:1044D00070331A6070473549443908607047334972
:1044E000403908607047364908607047014600202F
:1044F000294A8C32106820F01F004A1E1043264AB9
:104500008C321060704701460020234A8C321068BC
:1045100020F4F8504A1E40EA02201F4A8C321060F4
:104520007047014600201C4A8C32106820F440106D
:1045300008431060704701460020174A8C3210680B
:1045400020F4400008431060704701460020124AE2
:104550008C32106820F440300843106070471949CD
:104560000860704739B10C4A3032126802430A4B76
:1045700030331A6006E0084A303212688243064B34
:1045800030331A607047F9B1034A3432126802437B
:10459000014B34331A601CE000380240FFFFF6EA9A
:1045A000103000240030002000004742800E4742B7
:1045B0000024F40000127A007C000020FFFCFF0FB2
:1045C0005C014742E01147428F4A126882438E4B9A
:1045D0001A60704739B18C4A121D126802438A4B27
:1045E0001B1D1A6006E0884A121D12688243864B22
:1045F0001B1D1A60704739B1834A0C32126802439E
:10460000814B0C331A6006E07F4A0C3212688243F9
:104610007D4B0C331A60704739B17B4A10321268F7
:104620000243794B10331A6006E0774A1032126861
:104630008243754B10331A60704739B1724A243A7D
:1046400012680243704B243B1A6006E06E4A243A1B
:10465000126882436C4B243B1A60704739B16A4A36
:10466000203A12680243684B203B1A6006E0664A13
:10467000203A12688243644B203B1A60704739B17C
:10468000614A1C3A126802435F4B1C3B1A6006E009
:104690005D4A1C3A126882435B4B1C3B1A607047B0
:1046A00039B1594A143A12680243574B143B1A6005
:1046B00006E0554A143A12688243534B143B1A6081
:1046C000704739B1504A103A126802434E4B103BC2
:1046D0001A6006E04C4A103A126882434A4B103B7B
:1046E0001A60704739B1484A1C3212680243464B7F
:1046F0001C331A6006E0444A1C3212688243424B63
:104700001C331A60704739B13F4A203212680243A5
:104710003D4B20331A6006E03B4A20321268824348
:10472000394B20331A60704739B1374A2432126846
:104730000243354B24331A6006E0334A24321268B0
:104740008243314B24331A60704739B12E4A2C32E0
:10475000126802432C4B2C331A6006E02A4A2C3292
:1047600012688243284B2C331A60704739B1264AAD
:10477000303212680243244B30331A6006E0224A7A
:10478000303212688243204B30331A607047012860
:1047900008D11D493C31096841F008011A4A3C32F0
:1047A000116007E018493C31096821F00801164AF8
:1047B0003C321160704739B1134A273A12780243EC
:1047C000114B273B1A7006E00F4A273A12788243B2
:1047D0000D4B273B1A7070470B484030006840F083
:1047E0008070094940310860704701460020064A40
:1047F000283A12680A400AB1012000E00020704700
:1048000001492639087070473438024070477047B4
:10481000704770477047754600F02CF8AE460500AB
:104820006946534620F00700854618B020B5FEF7CC
:1048300077FABDE820404FF000064FF000074FF038
:1048400000084FF0000B21F00701AC46ACE8C009AE
:10485000ACE8C009ACE8C009ACE8C0098D467047B7
:1048600010B50446AFF300802046BDE81040FBF7CA
:10487000D4BC0000004870475402002010B591EAF3
:10488000030F48BF83F0004300F12682841A71EBC6
:10489000030C05D2121943EB0C03001B61EB0C0156
:1048A000DFF824E14FEA1154A4EB135C1EEA430F36
:1048B00018BF9EEA445F73D023EA0E03DCF1200E9A
:1048C00021EA045143F4801332D322FA0CFE10EB98
:1048D0000E0023FA0CFE41EB0E01CCF1200E03FA80
:1048E0000EFE10EB0E0051F10001B1F5801FCCF16E
:1048F000200E32D201EB045112FA0EF2BDE8104044
:1049000058BF7047401C38BF5FEA420218BF70476B
:10491000002814BF20F0010041F100014FEA4103DB
:1049200013F5001F38BF7047A1F1C04100F0BAB9BC
:10493000012A43EB0302ACF1200CDCF11F0E32BF65
:104940004FF0000E23FA0CF310EB030041EB04517F
:10495000B4EB115FD0D0A1EB045101F580114908EF
:104960005FEA300001EB04510ED350F1000038BF74
:1049700012FA0EFE08D1BDE81040C9E7401C38BF4E
:104980005FEA4202CAD1C3E7BDE810404FEA4103E3
:1049900013F5001F38BF7047A1F1C04100F082B984
:1049A0009EEA445F08D011EA5E0FBDE8104004BFE4
:1049B00001F0004100207047BDE8104070B500F0E4
:1049C00023F900BF64FBBE3E0000E0FF4FEA410355
:1049D0004FEA5353A3F58063D3F11E03C8BFD3F14D
:1049E000210C0CDD4FF0004242EAC12242EA505253
:1049F00032FA03FC8CEAE17CACEBE1707047102BDF
:104A0000C4BF0020704703F5787CBCF1FF3F04D0A1
:104A10006FF0004282EA2100704770B500F0F4F8B0
:104A20004992248000207047F2E700004FEA1153BA
:104A3000A3F58063D3F11E03A8BFD3F1200C08DBDC
:104A40004FF0004242EAC12252EA505232FA03F0D9
:104A5000704709420BD4102BC4BF0020704703F5E8
:104A6000787CBCF1FF3F05D04FF0FF3070474FF02E
:104A70000000704770B500F0C7F800BF499224806D
:104A800000207047F0E710F0004248BF4042B0FA03
:104A900080F310FA03F10AD0C3F11D0303F580631C
:104AA0004FEA415002EB035202EBD12170474FF025
:104AB00000007047DFF848C170B51CEA111E1EBF28
:104AC0001CEA13159EEA0C0F95EA0C0F00F06F809C
:104AD00081EA030423EA4C134EEAD47E21EA4C1106
:104AE00041F4801143F48013AE44A1FB024CA0FBBF
:104AF0000365AEF17F7E361955EB0C05A1FB034C27
:104B00004CF10003A0FB021C16EB0C06654153F1AF
:104B10000003094218BF46F0010613F4007F0BD1D1
:104B20004FEA03314FEA0530340341EA155140EAB8
:104B300016506FF003020AE04FEAC3214FEAC52086
:104B4000F40241EA555140EA56506FF0020202EB7E
:104B50002E4201EB025585EACE710AD05FEA440C81
:104B600018BF24F0004450F1000041F1000120EA98
:104B7000D47040F2FE7C624500D270BDA84214BFE2
:104B80004FF080444FF04044002E08BF0024BEF197
:104B9000806FA8BFA1F1C041BDE8704080F2828063
:104BA0004FF0000001F1C04101F0004170479EEA62
:104BB0000C0F0CEA131518BF95EA0C0F06D04FF036
:104BC000000081EA030E0EF0004170BD00F01CF8F9
:104BD0008900013E00F007B800F009B84FEA430C25
:104BE0005FEA5C5C08D081EA030100F05BB84FEA41
:104BF000410C5FEA5C5CF6D14FF000000149704760
:104C00000000FF070000F87F0EF1020E2EF0030EE9
:104C10005EF8046B364205D4012A43EB030515F513
:104C2000001F12D8012841EB010C1CF5001F0CD805
:104C30000ED14FEAD17C15F5001F0CEB4C0C0CF19A
:104C4000020C08BF4CEBD37C04E04FF0080C01E0F1
:104C50004FEAD37C0CEB4C0526FA05F606F0070666
:104C6000B6F1040C06D20EEB860CBDE870404CF099
:104C7000010C6047DFE80CF0090B02024FF0004125
:104C80004FF00000A1F5002170BD19461046012823
:104C900051EB010418BFD4F5001484BF002001F0CB
:104CA000004170BD0808A0F500114FEA31017047BE
:104CB00091EA030F10B581F000413FF5E7AD83F0B5
:104CC000004300F009B8000010B591EA030F48BF97
:104CD00083F000433FF5DAAD841A71EB030C07D281
:104CE00012198CF0004C43EB0C03001B61EB0C0120
:104CF000DFF8A4E14FEA1154A4EB135C1EEA430F62
:104D000018BF9EEA445F00F0B08023EA6E0352426F
:104D100021EA0451C3EB6E0338BF5B1EDCF1200EA9
:104D200025D322FA0CFE10EB0E0043FA0CFE41EBE9
:104D30000E01CCF1200E03FA0EFE10EB0E0051F125
:104D40000001CCF1200E29D412FA0EF201EB04512D
:104D5000BDE8104058BF7047401C1CBFB2F1004F67
:104D6000704700280CBF491C20F00100704712EB6F
:104D7000020E43EB030218BF4FF0010E4EEA42024F
:104D8000ACF1200CDCF11E0E54D943FA0CFE10EBF2
:104D90000E0051F1FF31CCF11E0ED5D50EF1010EF2
:104DA00012FA0EFE404141EB010101EB445C5FEA67
:104DB0005C5C10D910EBDE7001EB045138BFBEF122
:104DC000004FBDE8104018BF704700280CBF491CB9
:104DD00020F00100704730D24FEAD42C11F50011B9
:104DE00024F400641BD0B1FA81F20B3AA41AA41E79
:104DF000D2F12003914030FA03F31943904001EBC4
:104E0000CC71002C01EB0451BDE81040A8BF7047E5
:104E100001F1C0414FF0000001F000417047B0FACD
:104E200080F310FA03F100D110BDE41A173C4805D5
:104E3000C90AE4E701EB045110BD491001EB04512C
:104E4000BDE810404FEA300002E04FF0000170472B
:104E50004A0008BF0042F8D0B2F5001F28BF7047D3
:104E600001F000414FF0000070479EEA445F07D018
:104E700011EA5E0FBDE8104004BF0021002070471A
:104E8000BDE8104070B5FFF7BFFE00BF40DFF63E43
:104E900083F00041104670470000E0FF4FF0407083
:104EA000E1EE100A70470000C84E00080000002024
:104EB0008C000000C4010008544F00088C00002042
:104EC0002C080000E00100080000000000000000C5
:104ED00000000000010000000000000000000000D1
:104EE000007A030A00000000000000000102030431
:104EF0000607080900000000000000000000000094
:104F000000000000000000000000000000000000A1
:104F10000000000000000000000000003000000061
:104F20000000000000000000FFFFFFFF0100000084
:104F30000000000000000000000000000000000071
:104F4000000000000000000001020304010203044D
:044F5000060708093F
:040000050800018965
:00000001FF
