:020000040800F2
:10000000D8070020890100086916000807100008B9
:1000100065160008650600082B2C0008000000008B
:10002000000000000000000000000000851E000825
:10003000890A000800000000F1160008711F00087E
:10004000A3010008A3010008A3010008A301000800
:10005000A3010008A3010008A3010008A3010008F0
:10006000A3010008A3010008A3010008A3010008E0
:10007000A3010008A3010008A3010008A3010008D0
:10008000A3010008A3010008A3010008A3010008C0
:10009000A3010008A3010008A3010008A3010008B0
:1000A000A3010008A3010008A3010008A3010008A0
:1000B000A3010008D51F0008C9210008A3010008FA
:1000C000A3010008A3010008A3010008A301000880
:1000D000A30100086D2A0008A3010008A30100087D
:1000E000A3010008A3010008A301000800F002F822
:1000F00000F03AF80AA090E8000C82448344AAF188
:100100000107DA4501D100F02FF8AFF2090EBAE885
:100110000F0013F0010F18BFFB1A43F0010318473B
:100120005C3C00007C3C0000103A24BF78C878C1D9
:10013000FAD8520724BF30C830C144BF04680C60ED
:10014000704700000023002400250026103A28BF35
:1001500078C1FBD8520728BF30C148BF0B60704739
:100160001FB51FBD10B510BD00F031F81146FFF7E7
:10017000F7FF03F065F900F04FF803B4FFF7F2FF63
:1001800003BC00F057F800000948804709480047C1
:10019000FEE7FEE7FEE7FEE7FEE7FEE7FEE7FEE737
:1001A000FEE7FEE704480549054A064B7047000094
:1001B000751F0008ED000008D8010020D8070020B6
:1001C000D8030020D8030020704770477047754659
:1001D00000F02CF8AE4605006946534620F00700B3
:1001E000854618B020B5FFF7DDFFBDE820404FF091
:1001F00000064FF000074FF000084FF0000B21F011
:100200000701AC46ACE8C009ACE8C009ACE8C009DD
:10021000ACE8C0098D46704710B50446AFF30080C6
:100220002046BDE81040FFF7A8BF00000048704717
:100230007401002001491820ABBEFEE72600020031
:100240007047000010B5044638480068401C78B973
:100250003748006837490860374800683749086000
:10026000204603F039FA3649087000202F4908600B
:1002700006E009231A4619463148007802F08AFF41
:100280002A48006818B92F4800783128F1D006E0D4
:1002900013231A4619462A48007802F0A3FE234881
:1002A000006818B9274800783228F1D006E00D23FD
:1002B000072211462248007802F0BAFD1B48006868
:1002C00018B9204800783328F1D006E011231A46E7
:1002D00019461B48007802F0F1FE1448006818B96E
:1002E000184800783428F1D006E015230122194679
:1002F0001348007802F006FE0C48006818B911484F
:1003000000783528F1D006E009231A4619460C4832
:10031000007802F0A3FF0548006818B90948007882
:100320003628F1D00848006810BD000048000020C1
:1003300018000020540000201C0000205000002065
:10034000580000203C0000204C00002010B504465E
:1003500038480068401C78B9374800683749086059
:100360003748006837490860204603F0B5F9364938
:10037000087000202F49086006E00A231A46194633
:100380003148007802F06AFF2A48006818B92F48FF
:1003900000783128F1D006E014231A4619462A487D
:1003A000007802F08BFE2348006818B927480078CF
:1003B0003228F1D006E008231622114622480078A0
:1003C00002F036FD1B48006818B920480078332831
:1003D000F1D006E00A231A4619461B48007802F0BD
:1003E000D9FE1448006818B9184800783428F1D0AC
:1003F00006E002230E2219461348007802F082FD1F
:100400000C48006818B9114800783528F1D006E08A
:1004100012231A4619460C48007802F0E3FD0548FD
:10042000006818B9094800783628F1D008480068F3
:1004300010BD0000480000201800002054000020DB
:100440001C00002050000020580000203C0000202C
:100450004C00002010B5044638480068401C78B9AC
:1004600037480068374908603748006837490860EE
:10047000204603F031F93649087000202F49086002
:1004800006E011231A4619463148007802F0AAFD09
:100490002A48006818B92F4800783128F1D006E0C2
:1004A0000B231A4619462A48007802F073FE2348A7
:1004B000006818B9274800783228F1D006E01723E1
:1004C000032211462248007802F0B2FC1B48006863
:1004D00018B9204800783328F1D006E00B231A46DB
:1004E00019461B48007802F0B9FE1448006818B994
:1004F000184800783428F1D006E00F230522194669
:100500001348007802F0FEFC0C48006818B9114846
:1005100000783528F1D006E013231A4619460C4816
:10052000007802F0CBFD0548006818B9094800784A
:100530003628F1D00848006810BD000048000020AF
:1005400018000020540000201C0000205000002053
:10055000580000203C0000204C00002010B504464C
:1005600038480068401C78B9374800683749086047
:100570003748006837490860204603F0ADF836492F
:10058000087000202F49086006E012231A46194619
:100590003148007802F092FD2A48006818B92F48C7
:1005A00000783128F1D006E00C231A4619462A4873
:1005B000007802F053FE2348006818B927480078F5
:1005C0003228F1D006E00423102211462248007898
:1005D00002F02EFC1B48006818B920480078332828
:1005E000F1D006E014231A4619461B48007802F0A1
:1005F000F9FC1448006818B9184800783428F1D07C
:1006000006E00623182219461348007802F07AFC07
:100610000C48006818B9114800783528F1D006E078
:100620000C231A4619460C48007802F0B3FD054821
:10063000006818B9094800783628F1D008480068E1
:1006400010BD0000480000201800002054000020C9
:100650001C00002050000020580000203C0000201A
:100660004C00002000BFFEE710B504463848006883
:10067000401C78B937480068374908603748006837
:1006800037490860204603F027F8364908700020F3
:100690002F49086006E00E231122194631480078E0
:1006A00002F030FC2A48006818B92F480078312839
:1006B000F1D006E018230B2211462A48007802F0F8
:1006C000B7FB2348006818B9274800783228F1D0D2
:1006D00006E003231A4619462248007802F082FCFD
:1006E0001B48006818B9204800783328F1D006E08C
:1006F00005231A4619461B48007802F0AFFD14483E
:10070000006818B9184800783428F1D006E00523AD
:100710001A4619461348007802F03CFD0C48006860
:1007200018B9114800783528F1D006E001231A469F
:1007300019460C48007802F0C1FC0548006818B959
:10074000094800783628F1D00848006810BD00003C
:100750004800002018000020540000201C00002049
:1007600050000020580000203C0000204C000020D9
:1007700010B5044638480068401C78B9374800680E
:10078000374908603748006837490860204602F05A
:10079000A3FF3649087000202F49086006E01223A5
:1007A000152219463148007802F0ACFB2A4800684F
:1007B00018B92F4800783128F1D006E00C230F2219
:1007C00011462A48007802F033FB2348006818B924
:1007D000274800783228F1D006E004231A4619464B
:1007E0002248007802F06AFC1B48006818B92048CB
:1007F00000783328F1D006E002231A4619461B4838
:10080000007802F0EFFB1448006818B91848007827
:100810003428F1D006E006231A461946134800781A
:1008200002F01CFD0C48006818B911480078352802
:10083000F1D006E006231A4619460C48007802F06B
:10084000A9FC0548006818B9094800783628F1D095
:100850000848006810BD0000480000201800002073
:10086000540000201C0000205000002058000020F0
:100870003C0000204C00002010B5044638480068B9
:10088000401C78B937480068374908603748006825
:1008900037490860204602F01FFF364908700020E3
:1008A0002F49086006E016230922194631480078CE
:1008B00002F028FB2A48006818B92F480078312830
:1008C000F1D006E01023132211462A48007802F0E6
:1008D000AFFA2348006818B9274800783228F1D0C9
:1008E00006E007231A4619462248007802F052FC17
:1008F0001B48006818B9204800783328F1D006E07A
:1009000003231A4619461B48007802F0D7FB144807
:10091000006818B9184800783428F1D006E001239F
:100920001A4619461348007802F05CFB0C48006830
:1009300018B9114800783528F1D006E007231A4687
:1009400019460C48007802F089FC0548006818B97F
:10095000094800783628F1D00848006810BD00002A
:100960004800002018000020540000201C00002037
:1009700050000020580000203C0000204C000020C7
:1009800010B5044638480068401C78B937480068FC
:10099000374908603748006837490860204602F048
:1009A0009BFE3649087000202F49086006E00A23A4
:1009B0000D2219463148007802F0A4FA2A4800684E
:1009C00018B92F4800783128F1D006E014231722F7
:1009D00011462A48007802F02BFA2348006818B91B
:1009E000274800783228F1D006E008231A46194635
:1009F0002248007802F032FC1B48006818B92048F1
:100A000000783328F1D006E008231A4619461B481F
:100A1000007802F0BFFB1448006818B91848007845
:100A20003428F1D006E002231A461946134800780C
:100A300002F044FB0C48006818B9114800783528CA
:100A4000F1D006E004231A4619460C48007802F05B
:100A5000C9FA0548006818B9094800783628F1D065
:100A60000848006810BD0000480000201800002061
:100A7000540000201C0000205000002058000020DE
:100A80003C0000204C000020704700B5034603E006
:100A90004FF47A7000F005F8181EA3F10103F7D1A6
:100AA00000BD00EBC001C9004FF0E0225161002100
:100AB00091610521116100BF4FF0E021096901F446
:100AC00080310029F8D004214FF0E02211617047F5
:100AD00010B5044638480068401C78B937480068AB
:100AE000374908603748006837490860204602F0F7
:100AF000F3FD3649087000202F49086006E01123F5
:100B00001A4619463148007802F044FB2A4800682A
:100B100018B92F4800783128F1D006E00B231A4687
:100B200019462A48007802F05DFA2348006818B98F
:100B3000274800783228F1D006E00D230322194619
:100B40002248007802F0DEF91B48006818B92048F6
:100B500000783328F1D006E011231A4619461B48C5
:100B6000007802F07BFB1448006818B91848007838
:100B70003428F1D006E015230522114613480078E9
:100B800002F056F90C48006818B911480078352869
:100B9000F1D006E009231A4619460C48007802F005
:100BA0008DFA0548006818B9094800783628F1D050
:100BB0000848006810BD0000480000201800002010
:100BC000540000201C00002050000020580000208D
:100BD0003C0000204C00002010B504463848006856
:100BE000401C78B9374800683749086037480068C2
:100BF00037490860204602F06FFD36490870002032
:100C00002F49086006E012231A4619463148007839
:100C100002F024FB2A48006818B92F4800783128D0
:100C2000F1D006E00C231A4619462A48007802F053
:100C300045FA2348006818B9274800783228F1D0CF
:100C400006E00423162219462248007802F05AF9D9
:100C50001B48006818B9204800783328F1D006E016
:100C60000A231A4619461B48007802F0BBF91448BB
:100C7000006818B9184800783428F1D006E0062337
:100C80000E2211461348007802F0D2F80C48006892
:100C900018B9114800783528F1D006E012231A4619
:100CA00019460C48007802F075FA0548006818B932
:100CB000094800783628F1D00848006810BD0000C7
:100CC0004800002018000020540000201C000020D4
:100CD00050000020580000203C0000204C00002064
:100CE00010B5044638480068401C78B93748006899
:100CF000374908603748006837490860204602F0E5
:100D0000EBFC3649087000202F49086006E00923F3
:100D10001A4619463148007802F064F92A480068FA
:100D200018B92F4800783128F1D006E013231A466D
:100D300019462A48007802F02DFA2348006818B9AD
:100D4000274800783228F1D006E0172307221946F9
:100D50002248007802F0D6F81B48006818B92048ED
:100D600000783328F1D006E00B231A4619461B48B9
:100D7000007802F0A3F91448006818B91848007800
:100D80003428F1D006E00F230122114613480078E1
:100D900002F04EF80C48006818B911480078352860
:100DA000F1D006E013231A4619460C48007802F0E9
:100DB00055FA0548006818B9094800783628F1D076
:100DC0000848006810BD00004800002018000020FE
:100DD000540000201C00002050000020580000207B
:100DE0003C0000204C00002010B504463848006844
:100DF000401C78B9374800683749086037480068B0
:100E000037490860204602F067FC36490870002028
:100E10002F49086006E00A231A461946314800782F
:100E200002F04CF92A48006818B92F480078312898
:100E3000F1D006E014231A4619462A48007802F039
:100E40000DFA2348006818B9274800783228F1D0F5
:100E500006E00823102219462248007802F052F8D2
:100E60001B48006818B9204800783328F1D006E004
:100E700014231A4619461B48007802F08BF91448CF
:100E8000006818B9184800783428F1D006E0022329
:100E9000182211461348007801F0CAFF0C48006878
:100EA00018B9114800783528F1D006E00C231A460D
:100EB00019460C48007802F095F80548006818B902
:100EC000094800783628F1D00848006810BD0000B5
:100ED0004800002018000020540000201C000020C2
:100EE00050000020580000203C0000204C00002052
:100EF0002DE9F041024600250026002000230024B1
:100F0000002791F803C00CF00F0591F803C00CF016
:100F1000100CBCF1000F03D091F802C04CEA05059B
:100F200091F800C0BCF1000F31D0146800202BE014
:100F30004FF0010C0CFA00F3B1F800C00CEA030604
:100F40009E4220D183004FF00F0C0CFA03F7BC43F4
:100F500005FA03FC4CEA040491F803C0BCF1280F25
:100F600006D14FF0010C0CFA00FCC2F814C00AE0E4
:100F700091F803C0BCF1480F05D14FF0010C0CFAF9
:100F800000FCC2F810C0401C0828D1D31460B1F88E
:100F900000C0BCF1FF0F34DD546800202EE000F1EA
:100FA000080C4FF0010808FA0CF3B1F800C00CEA85
:100FB00003069E4221D183004FF00F0C0CFA03F779
:100FC000BC4305FA03FC4CEA040491F803C0BCF1ED
:100FD000280F05D100F1080C08FA0CF8C2F81480AB
:100FE00091F803C0BCF1480F07D100F1080C4FF095
:100FF000010808FA0CF8C2F81080401C0828CED36B
:101000005460BDE8F08100BFFEE7000008B5012193
:10101000082000F08FFD0320ADF8000010208DF8AF
:10102000030003208DF8020069460248FFF760FFC5
:1010300008BD0000000C014010B5044638480068A7
:10104000401C78B93748006837490860374800685D
:1010500037490860204602F03FFB364908700020FF
:101060002F49086006E00D231A46194631480078DA
:1010700002F090F82A48006818B92F480078312803
:10108000F1D006E017231A4619462A48007801F0E5
:10109000A9FF2348006818B9274800783228F1D002
:1010A00006E00D231A4619462248007802F0D6F8C9
:1010B0001B48006818B9204800783328F1D006E0B2
:1010C0001123062211461B48007801F0B1FE144896
:1010D000006818B9184800783428F1D006E01523C4
:1010E0001A4619461348007801F0E8FF0C480068DA
:1010F00018B9114800783528F1D006E009230422F8
:1011000019460C48007801F0FDFE0548006818B942
:10111000094800783628F1D00848006810BD000062
:101120004800002018000020540000201C0000206F
:1011300050000020580000203C0000204C000020FF
:1011400010B5044638480068401C78B93748006834
:10115000374908603748006837490860204602F080
:10116000BBFA3649087000202F49086006E00E23BC
:101170001A4619463148007802F070F82A4800688B
:1011800018B92F4800783128F1D006E018231A4604
:1011900019462A48007801F091FF2348006818B9E1
:1011A000274800783228F1D006E016231A4619465F
:1011B0002248007801F016FF1B48006818B9204843
:1011C00000783328F1D006E005230A2211461B4897
:1011D000007801F02DFE1448006818B9184800780E
:1011E0003428F1D006E00E231A4619461348007839
:1011F00001F0D0FF0C48006818B911480078352874
:10120000F1D006E00123122219460C48007801F0C3
:1012100079FE0548006818B9094800783628F1D0E9
:101220000848006810BD0000480000201800002099
:10123000540000201C000020500000205800002016
:101240003C0000204C00002010B5044638480068DF
:10125000401C78B93748006837490860374800684B
:1012600037490860204602F037FA364908700020F6
:101270002F49086006E015231A46194631480078C0
:1012800001F0B0FE2A48006818B92F4800783128CC
:10129000F1D006E00F231A4619462A48007801F0DB
:1012A00079FF2348006818B9274800783228F1D020
:1012B00006E017231A4619462248007801F0FEFE80
:1012C0001B48006818B9204800783328F1D006E0A0
:1012D0000B23022211461B48007801F0A9FD144897
:1012E000006818B9184800783428F1D006E00F23B8
:1012F0001A4619461348007801F0B0FF0C48006800
:1013000018B9114800783528F1D006E013230622D9
:1013100019460C48007801F0F5FD0548006818B939
:10132000094800783628F1D00848006810BD000050
:101330004800002018000020540000201C0000205D
:1013400050000020580000203C0000204C000020ED
:1013500010B5044637480068401C68B93648006834
:10136000364908603648006836490860204602F071
:10137000B3F900202F49086006E016231A461946E3
:101380003148007801F09AFE2A48006818B92F48C1
:1013900000783128F1D006E010231A4619462A4871
:1013A000007801F05BFF2348006818B927480078EF
:1013B0003228F1D006E010231A4619462248007858
:1013C00001F0E8FE1B48006818B92048007833286F
:1013D000F1D006E00323142211461B48007801F0E7
:1013E00027FD1448006818B9184800783428F1D04F
:1013F00006E018231A4619461348007801F0F2FD5A
:101400000C48006818B9114800783528F1D006E07A
:1014100007230C2219460C48007801F073FD05489B
:10142000006818B9094800783628F1D008480068E3
:1014300010BD0000480000201800002054000020CB
:101440001C00002050000020580000203C0000201C
:101450004C00002010B500F04FFC4FF0FF3000F0C2
:1014600057F800F031FC10BD10B500F043F8012032
:1014700000F04EF800F040FC4FF0FF3000F048F86C
:1014800000F022FC10BD10B500F034F8022000F08E
:101490003FF800F019FC10BD70B505460C46012D53
:1014A00006D1114908600121104800F08DFF08E0C5
:1014B00000200D4908600E49086000210B4800F02B
:1014C00083FF012C07D100200749091D0860C820AF
:1014D00000F0A8F806E001200349091D0860C820B3
:1014E00000F0A0F870BD0000880121420008004013
:1014F0003000002010B501F0B1FB02F01FF81920F8
:10150000FFF7C3FA00200149086010BD3800002031
:1015100010B5044654B12C48006838B92B4800680F
:1015200020442A490860204600F054F8012C16D1C6
:1015300025480068012812D103E001210846FFF781
:10154000ABFF234800680128F7D100210846FFF7C8
:10155000A3FF00201E49086002201B490860022CDE
:1015600016D119480068012812D103E0012108466C
:10157000FFF792FF164800680228F7D100210846BD
:10158000FFF78AFF00201249086002200E49086018
:10159000601CB8B90C480068012813D103E0002191
:1015A0000120FFF779FF0A480068401C0028F6D1A7
:1015B00000210846FFF770FF00200549086002205F
:1015C0000149086010BD0000380000201C00002008
:1015D00020000020012801D0411C11B96421054AD6
:1015E0001160022802D1C821024A11600121024A79
:1015F000116070472C0000203800002010B5FFF764
:1016000079FF0120FFF784FF00F05EFB10BD10B5ED
:10161000FFF770FF4FF0FF30FFF77AFF00F054FB49
:1016200010BD000010B504462146024800F0B9FF85
:1016300010BD00000008004010B50120FFF768FF52
:1016400000F042FB10BD10B50220FFF761FF00F073
:101650003BFB10BD10B54FF0FF30FFF759FF00F016
:1016600033FB10BD00BFFEE77047000070B50021DE
:1016700000230F22C47804B3154C246804F4E064FA
:10168000C4F5E064210AC1F10403CA40447804FAB5
:1016900003F184781440214309010E4C0678A155CA
:1016A000047804F01F050124AC4005786D11AD00ED
:1016B00005F1E025C5F8004109E0047804F01F05B4
:1016C0000124AC40044D0678761145F8264070BDE3
:1016D0000CED00E000E400E080E100E0024901439D
:1016E000024A1160704700000000FA050CED00E0AE
:1016F0007047000010B5044638480068401C78B9AF
:10170000374800683749086037480068374908603B
:10171000204601F0E1FF3649087000202F4908609B
:1017200006E015231A4619463148007801F032FDCB
:101730002A48006818B92F4800783128F1D006E00F
:101740000F231A4619462A48007801F04BFC23481B
:10175000006818B9274800783228F1D006E00D2338
:101760001A4619462248007801F0A8FC1B48006878
:1017700018B9204800783328F1D006E0112302225E
:1017800019461B48007801F0BDFB1448006818B9E1
:10179000184800783428F1D006E015231A46194677
:1017A0001348007801F05AFD0C48006818B9114838
:1017B00000783528F1D006E00923062211460C48AE
:1017C000007801F035FB0548006818B90948007831
:1017D0003628F1D00848006810BD000048000020FD
:1017E00018000020540000201C00002050000020A1
:1017F000580000203C0000204C00002010B504469A
:1018000038480068401C78B9374800683749086094
:101810003748006837490860204601F05DFF3649C7
:10182000087000202F49086006E016231A46194662
:101830003148007801F012FD2A48006818B92F4895
:1018400000783128F1D006E010231A4619462A48BC
:10185000007801F033FC2348006818B92748007865
:101860003228F1D006E016231A461946224800789D
:1018700001F090FC1B48006818B920480078332814
:10188000F1D006E003230A2219461B48007801F034
:1018900039FB1448006818B9184800783428F1D08A
:1018A00006E00E231A4619461348007801F09AFB09
:1018B0000C48006818B9114800783528F1D006E0C6
:1018C0000723122211460C48007801F0B1FA0548AE
:1018D000006818B9094800783628F1D0084800682F
:1018E00010BD000048000020180000205400002017
:1018F0001C00002050000020580000203C00002068
:101900004C00002010B5044638480068401C78B9E7
:101910003748006837490860374800683749086029
:10192000204601F0D9FE3649087000202F49086092
:1019300006E00D231A4619463148007801F052FBA3
:101940002A48006818B92F4800783128F1D006E0FD
:1019500017231A4619462A48007801F01BFC234831
:10196000006818B9274800783228F1D006E017231C
:101970001A4619462248007801F070FC1B4800689E
:1019800018B9204800783328F1D006E00B2308224C
:1019900019461B48007801F0B5FA1448006818B9D8
:1019A000184800783428F1D006E00F231A4619466B
:1019B0001348007801F082FB0C48006818B9114800
:1019C00000783528F1D006E01323042211460C4894
:1019D000007801F02DFA0548006818B90948007828
:1019E0003628F1D00848006810BD000048000020EB
:1019F00018000020540000201C000020500000208F
:101A0000580000203C0000204C00002010B5044687
:101A100038480068401C78B9374800683749086082
:101A20003748006837490860204601F055FE3649BE
:101A3000087000202F49086006E00E231A46194658
:101A40003148007801F03AFB2A48006818B92F485D
:101A500000783128F1D006E018231A4619462A48A2
:101A6000007801F0FBFB2348006818B9274800788C
:101A70003228F1D006E010231A4619462248007891
:101A800001F0B0FA1B48006818B9204800783328E4
:101A9000F1D006E00523142219461B48007801F016
:101AA00031FA1448006818B9184800783428F1D081
:101AB00006E018231A4619461348007801F06AFB1D
:101AC0000C48006818B9114800783528F1D006E0B4
:101AD00001230C2211460C48007801F0A9F90548B1
:101AE000006818B9094800783628F1D0084800681D
:101AF00010BD000048000020180000205400002005
:101B00001C00002050000020580000203C00002055
:101B10004C00002029B1064AD2690243044BDA6125
:101B200004E0034AD2698243014BDA617047000046
:101B30000010024029B1064A92690243044B9A619F
:101B400004E0034A92698243014B9A6170470000A6
:101B50000010024030B500210022002400232D4D4A
:101B60006D6805F00C0121B1042905D0082923D1A5
:101B700005E0294D056022E0274D05601FE0254D59
:101B80006D6805F47012234D6D6805F480340225EC
:101B900005EB92421CB9214D554305600BE01D4DEC
:101BA0006D6805F400351DB11C4D5543056002E01C
:101BB000194D5543056002E0174D056000BF00BF99
:101BC000144D6D6805F0F0010909154D6B5C056851
:101BD000DD4045600F4D6D6805F4E061090A104D68
:101BE0006B5C4568DD4085600A4D6D6805F46051A9
:101BF000C90A0B4D6B5C4568DD40C560054D6D68DD
:101C000005F44041890B074D6B5CC568B5FBF3F5E6
:101C1000056130BD0010024000127A0000093D004D
:101C2000000000201000002010B5FFF763FC4FF00B
:101C3000FF3000F07DF800F047F810BD10B500F05F
:101C40005BF8012000F074F8FFF754FC4FF0FF3010
:101C500000F06EF800F038F810BD10B500F04CF848
:101C6000022000F065F800F02FF810BD70B50546B1
:101C70000C46012D06D1114908600121104800F0E1
:101C8000A3FB08E000200D4908600E490860002110
:101C90000B4800F099FB012C07D100200749091DD2
:101CA0000860C82000F0CEF806E001200349091DB5
:101CB0000860C82000F0C6F870BD00008001214215
:101CC000000400403400002010B500F0CDFF00F00B
:101CD000C5FF00200149086010BD00003800002049
:101CE00010B500F0C1FF00F0B9FF00200149086005
:101CF00010BD00003800002010B500F0B5FF01F065
:101D000017FC1920FEF7C1FE00200149086010BD34
:101D10003800002010B501F011FC01F009FC192079
:101D2000FEF7B3FE00200149086010BD3800002016
:101D300010B5044654B12C48006838B92B480068E7
:101D400020442A490860204600F054F8012C16D19E
:101D500025480068012812D103E001210846FFF759
:101D600085FF234800680128F7D100210846FFF7C6
:101D70007DFF00201E49086002201B490860022CDC
:101D800016D119480068012812D103E00121084644
:101D9000FFF76CFF164800680228F7D100210846BB
:101DA000FFF764FF00201249086002200E49086016
:101DB000601CB8B90C480068012813D103E0002169
:101DC0000120FFF753FF0A480068401C0028F6D1A5
:101DD00000210846FFF74AFF00200549086002205D
:101DE0000149086010BD00003800002018000020E4
:101DF00024000020012801D0411C11B96421054AAA
:101E00001160022802D1C821024A11600121024A50
:101E1000116070472C0000203800002010B5FFF73B
:101E20006BFF0120FFF784FFFFF74EFF10BD10B5D9
:101E3000FFF762FF4FF0FF30FFF77AFFFFF744FF35
:101E400010BD000010B504462146024800F0A7FB73
:101E500010BD00000004004010B50120FFF768FF2E
:101E6000FFF732FF10BD10B50220FFF761FFFFF74B
:101E70002BFF10BD10B54FF0FF30FFF759FFFFF7F4
:101E800023FF10BD704710B500F002F810BD000030
:101E90000CB50020019000903348006840F4803079
:101EA0003149086000BF3048006800F400300090FD
:101EB0000198401C0190009818B90198B0F5A06FE6
:101EC000F1D12948006800F4003010B101200090E1
:101ED00001E0002000900098012843D123480068C9
:101EE00040F01000214908600846006820F0030017
:101EF00008600846006840F0020008601A48406820
:101F0000194948600846406848600846406840F4FF
:101F1000806048600846406820F47C1048600846AD
:101F2000406840F4E81048600846006840F080705F
:101F3000086000BF0C48006800F000700028F9D06D
:101F40000948406820F00300074948600846406897
:101F500040F00200486000BF0348406800F00C00F9
:101F60000828F9D10CBD00000010024000200240FA
:101F70007047000010B51348006840F00100114997
:101F8000086008464068104908400E494860084605
:101F900000680E4908400B4908600846006820F4B4
:101FA000802008600846406820F4FE0048604FF436
:101FB0001F008860FFF767FF4FF00060044908606A
:101FC00010BD0000001002400000FFF8FFFFF6FE09
:101FD00008ED00E02DE9F04701216E4800F000FA1D
:101FE000002854D06C480068401C6B4908606B485E
:101FF0000068D8B908460068642808D168480068B5
:10200000642804D100200860012066490860624805
:102010000068C82814D162480068C82810D1002080
:102020005D49086002205F49086009E05A4800687D
:10203000642805D1002058490860401E59490860AD
:1020400059480068401C58490860084600685449CF
:10205000096888421BDA52480068642843D1524814
:102060000068282814DA5048006801F07CFC80469B
:1020700000224E4B01F08EFC064600224C4B01F034
:1020800087FD044601F040FC8246FEF70AFD77E03A
:1020900045480068282807DB434800683C2803DCE3
:1020A0006420FEF7FEFC6BE03F4800683C2867DDDB
:1020B0003D480068642863DA3B490968A1F13C00A7
:1020C00001F051FC80460022384B01F063FC0646CB
:1020D0000022384B01F070FB044601F015FC8246EB
:1020E000FEF7DFFC4CE02E480068C82843D12E489C
:1020F0000068502814DA2C48006801F034FC80464F
:102100002D4A2E4B01F046FC064600222C4B01F0D6
:102110003FFD044601F0F8FB8246FEF7C2FC2FE0CB
:1021200021480068502807DB1F480068782803DC36
:102130003220FEF7B6FC23E01B48006878281FDD3C
:1021400019480068C8281BDA17490968A1F1780006
:1021500001F009FC8046184A184B01F01BFC0646AA
:102160000022184B01F028FB044601F0CDFB82460B
:10217000FEF797FC04E000200B490860084908605E
:102180000121044800F01DF90121024800F016F970
:10219000BDE8F087000400403400002084012142A3
:1021A0002C00002024000020280000200000F83F20
:1021B0000030644000005940CDCCCCCCCCCCEC3FBE
:1021C00000A05E40000049402DE9F04701216E4823
:1021D00000F006F9002854D06C480068401C6B4998
:1021E00008606B480068D8B908460068642808D1C0
:1021F00068480068642804D100200860012066490E
:10220000086062480068C82814D162480068C8287D
:1022100010D100205D49086002205F49086009E094
:102220005A480068642805D1002058490860401EBB
:102230005949086059480068401C584908600846D8
:1022400000685449096888421BDA524800686428CB
:1022500043D152480068282814DA5048006801F039
:1022600082FB804600224E4B01F094FB0646002282
:102270004C4B01F08DFC044601F046FB8246FEF714
:1022800010FC77E045480068282807DB43480068D1
:102290003C2803DC6420FEF704FC6BE03F48006848
:1022A0003C2867DD3D480068642863DA3B490968DB
:1022B000A1F13C0001F057FB80460022384B01F0B1
:1022C00069FB06460022384B01F076FA044601F01D
:1022D0001BFB8246FEF7E5FB4CE02E480068C82851
:1022E00043D12E480068502814DA2C48006801F0C9
:1022F0003AFB80462D4A2E4B01F04CFB064600224D
:102300002C4B01F045FC044601F0FEFA8246FEF734
:10231000C8FB2FE021480068502807DB1F480068F1
:10232000782803DC3220FEF7BCFB23E01B48006862
:1023300078281FDD19480068C8281BDA1749096882
:10234000A1F1780001F00FFB8046184A184B01F00C
:1023500021FB06460022184B01F02EFA044601F03C
:10236000D3FA8246FEF79DFB04E000200B4908608B
:10237000084908600121044800F023F801210248BF
:1023800000F01CF8BDE8F087000800403000002095
:102390008C0121422C000020200000202800002079
:1023A0000000F83F0030644000005940CDCCCCCC58
:1023B000CCCCEC3F00A05E4000004940CA43028202
:1023C0007047CA430282704721B1028842F001027D
:1023D000028004E002884FF6FE731A4002807047C4
:1023E00030B50246002000230024158A05EA0103C7
:1023F000958905EA010413B10CB1012000E0002029
:1024000030BD1AB183890B43838102E083898B43FA
:102410008381704701894FF6F8721140018170473E
:1024200070B5002400220023058C4FF6FE7635405F
:102430000584028C8388048B4FF68F752C40B51E63
:102440002C400D882C43751E2A400D892A434D8847
:102450002A43144DA8420BD0134DA84208D0134D67
:10246000A84205D0124DA84202D0124DA84213D165
:102470004FF6F7752A404D892A434FF6FB752A40DF
:102480008D882A434FF6FF652B404FF6FF552B40B2
:102490008D892B43CD892B4383800483CD8885860A
:1024A000028470BD002C0140003401400040014016
:1024B00000440140004801400A460021018B4FF6CC
:1024C000F7731940114301837047000070B5002471
:1024D00000220023058C4FF6EF7635400584028CF0
:1024E0008388048B48F6FF752C404FF6FF452C403F
:1024F0000D884FF6FF7606EA05252C434FF6DF756B
:102500002A400D8906EA05152A434D8806EA051575
:102510002A43154DA84202D0144DA8421DD14FF6B2
:102520007F752A404D894FF6FF7606EA05152A4346
:102530004FF6BF752A408D8806EA05152A434FF6E7
:10254000FF352B404FF2FF752B408D8906EA85053C
:102550002B43CD8906EA85052B4383800483CD88F0
:102560000587028470BD0000002C0140003401404A
:102570000A460021018B4FF2FF7319404FF6FF739B
:1025800003EA02231943018370470021018041803F
:102590008180C180018141818181C18170478186B3
:1025A0007047018770470000002202881D4B984247
:1025B0000ED01D4B98420BD0B0F1804F08D01B4B72
:1025C000984205D01A4B984202D01A4B984204D137
:1025D0004FF68F731A404B881A43174B984207D017
:1025E000164B984204D04FF6FF431A40CB881A434B
:1025F00002808B8883850B8803850A4B98420BD019
:10260000094B984208D00E4B984205D00D4B98428A
:1026100002D00D4B984201D10B7A038601238382AD
:1026200070470000002C01400034014000040040CD
:1026300000080040000C0040001000400014004062
:1026400000400140004401400048014010B50446EC
:1026500038480068401C78B9374800683749086036
:102660003748006837490860204601F035F8364998
:10267000087000202F49086006E00E230922114649
:102680003148007800F0D4FB2A48006818B92F4878
:1026900000783128F1D006E01823132219462A4881
:1026A000007800F02FFC2348006818B9274800780C
:1026B0003228F1D006E007231A461946224800784E
:1026C00000F090FC1B48006818B9204800783328B7
:1026D000F1D006E005231A4619461B48007800F0A1
:1026E000EDFC1448006818B9184800783428F1D077
:1026F00006E001231A4619461348007800F04AFD07
:102700000C48006818B9114800783528F1D006E067
:1027100001231A4619460C48007800F09FFD054831
:10272000006818B9094800783628F1D008480068D0
:1027300010BD0000480000201800002054000020B8
:102740001C00002050000020580000203C00002009
:102750004C00002010B5044638480068401C78B989
:1027600037480068374908603748006837490860CB
:10277000204600F0B1FF3649087000202F4908605C
:1027800006E00A23152211463148007800F050FB7C
:102790002A48006818B92F4800783128F1D006E09F
:1027A00014230F2219462A48007800F0ABFB234877
:1027B000006818B9274800783228F1D006E00823CD
:1027C0001A4619462248007800F078FC1B48006839
:1027D00018B9204800783328F1D006E002231A46C1
:1027E00019461B48007800F0D5FC1448006818B959
:1027F000184800783428F1D006E002231A4619461A
:102800001348007800F02AFD0C48006818B91148F8
:1028100000783528F1D006E006231A4619460C4800
:10282000007800F0DFFB0548006818B90948007817
:102830003628F1D00848006810BD0000480000208C
:1028400018000020540000201C0000205000002030
:10285000580000203C0000204C00002010B5044629
:1028600038480068401C78B9374800683749086024
:102870003748006837490860204600F02DFF364988
:10288000087000202F49086006E016231122114627
:102890003148007800F0CCFA2A48006818B92F486F
:1028A00000783128F1D006E010230B2219462A487F
:1028B000007800F027FB2348006818B92748007803
:1028C0003228F1D006E003231A4619462248007840
:1028D00000F060FC1B48006818B9204800783328D5
:1028E000F1D006E003231A4619461B48007800F091
:1028F000B5FC1448006818B9184800783428F1D09D
:1029000006E005231A4619461348007800F06AFBD2
:102910000C48006818B9114800783528F1D006E055
:1029200007231A4619460C48007800F0C7FB0548F3
:10293000006818B9094800783628F1D008480068BE
:1029400010BD0000480000201800002054000020A6
:102950001C00002050000020580000203C000020F7
:102960004C00002010B5044638480068401C78B977
:1029700037480068374908603748006837490860B9
:10298000204600F0A9FE3649087000202F49086053
:1029900006E012230D2211463148007800F048FA73
:1029A0002A48006818B92F4800783128F1D006E08D
:1029B0000C23172219462A48007800F0A3FA23486E
:1029C000006818B9274800783228F1D006E00423BF
:1029D0001A4619462248007800F040FC1B4800685F
:1029E00018B9204800783328F1D006E008231A46A9
:1029F00019461B48007800F0F5FA1448006818B929
:102A0000184800783428F1D006E006231A46194603
:102A10001348007800F052FB0C48006818B91148C0
:102A200000783528F1D006E004231A4619460C48F0
:102A3000007800F0AFFB0548006818B90948007835
:102A40003628F1D00848006810BD0000480000207A
:102A500018000020540000201C000020500000201E
:102A6000580000203C0000204C00002010B540F22F
:102A70002551094800F031F801280CD1064800F032
:102A8000CBF80649087001200549087040F225512D
:102A9000014800F007F810BD003801401400002084
:102AA0001500002010B50022002340F66A14A14250
:102AB00000D100BF0A1201249440A3B2DC43048079
:102AC00010BD21B1828942F40052828104E08289E2
:102AD0004DF6FF731A408281704702460020B1F51F
:102AE000007F00D100BF13880B400BB1012000E034
:102AF00000207047F0B50346002400260025002082
:102B000040F66A17B94200D100BF1846C1F342141B
:102B100001F01F06012707FA06F5012C01D10C3040
:102B200004E0022C01D1103000E014301AB1076823
:102B30002F43076002E00768AF430760F0BD000065
:102B40002DE9F04786B005460E460024A24600BF98
:102B5000A1460027B08900B100BF2F462C8A4CF651
:102B6000FF700440F08804432C82AC894EF6F310C9
:102B70000440B08831890843718908430443AC811B
:102B8000AC8A4FF6FF400440B0890443AC8201A8F0
:102B9000FEF7E0FF1F48874202D1DDF810A001E0F8
:102BA000DDF80CA0A88900F4004040B10AEBCA008F
:102BB00000EB0A1031684900B0FBF1F807E00AEBBE
:102BC000CA0000EB0A1031688900B0FBF1F86420FC
:102BD000B8FBF0F004012009642101FB1089A889E9
:102BE00000F4004040B1322000EBC900B0FBF1F02E
:102BF00000F00700044308E0322000EB09106421D4
:102C0000B0FBF1F000F00F0004432C8106B0BDE8EA
:102C1000F08700000038014001468888C0F30800B2
:102C20007047C1F308028280704700BFFEE70000D2
:102C300008B501210420FEF77DFF10208DF8030068
:102C40000F20ADF8000003208DF80200694602480D
:102C5000FEF74EF908BD00000008014001200149BF
:102C60000860704780812142012001490860704757
:102C70008481214200B589B001210220FEF74AFF7C
:102C800001210420FEF756FF18208DF82300C020F4
:102C9000ADF8200003208DF8220008A92C48FEF78B
:102CA00027F92C48FFF7B6FB0020ADF81A00ADF865
:102CB00016004FF6FF70ADF818000020ADF81400B4
:102CC0008DF81C0005A92348FFF76EFC01A8FFF74B
:102CD0005CFC6020ADF804000020ADF80C00012081
:102CE000ADF806000020ADF80A0001A91948FFF769
:102CF00097FB01A91748FFF7E9FB08211548FFF7E3
:102D0000DBFB08211348FFF733FC4FF4A060FEF70C
:102D1000E5FC1D208DF8000001208DF80300002047
:102D20008DF8010002208DF802006846FEF79EFC37
:102D300001210848FFF742FB012211460548FFF731
:102D400060FB00210348FFF73FFB09B000BD000016
:102D5000000801400004004000B589B001210420B2
:102D6000FEF7D8FE18208DF82300C020ADF8200013
:102D700003208DF8220008A92B48FEF7B9F82B484C
:102D8000FFF748FB0020ADF81A00ADF816004FF62B
:102D9000FF70ADF818000020ADF814008DF81C008D
:102DA00005A92248FFF700FC01A8FFF7EEFB602011
:102DB000ADF804000020ADF80C000120ADF80600CD
:102DC0000020ADF80A0001A91848FFF729FB01A966
:102DD0001648FFF77BFB08211448FFF76DFB08211D
:102DE0001248FFF7C5FB4FF4A060FEF777FC1E20EA
:102DF0008DF8000001208DF803008DF801000020FF
:102E00008DF802006846FEF731FC01210748FFF704
:102E1000D5FA012211460548FFF7F3FA00210348CD
:102E2000FFF7D2FA09B000BD000C014000080040D5
:102E30002DE9F04104460D4616461F462D49086807
:102E400000EBD0714910A0EB4101002933D12A4990
:102E5000086800EBD0714910A0EB4101A9B9FEF759
:102E600003FB312C02D1FFF705F808E0322C02D128
:102E7000FEF7F9FF03E0332C01D1FEF7EDFF1F4809
:102E8000056001201E49086032E0FEF7B7FB312CD7
:102E900002D1FEF7EFFF08E0322C02D1FEF7E3FF8C
:102EA00003E0332C01D1FEF7D7FF14480660012060
:102EB000134908601CE01049086800EBD071491004
:102EC000A0EB4101A1B9FEF7B2FF312C02D1FEF710
:102ED000C1FB08E0322C02D1FEF7B5FB03E0332C36
:102EE00001D1FEF7A9FB05480760012004490860ED
:102EF000BDE8F08154000020500000204C0000206C
:102F0000480000202DE9F04104460D4616461F46B4
:102F100059E03049086800EBD0714910A0EB41013D
:102F200099BB2D49086800EBD0714910A0EB410115
:102F3000A9B9FEF783FE312C02D1FEF78BFB08E026
:102F4000322C02D1FEF77FFB03E0332C01D1FEF7D8
:102F500073FB2248056001202149086033E0FEF739
:102F600056FB312C02D1FEF785FF08E0322C02D14E
:102F7000FEF779FF03E0332C01D1FEF76DFF174810
:102F800006600120164908601DE0FFE71249086845
:102F900000EBD0714910A0EB4101A1B9FEF73EFF53
:102FA000312C02D1FEF756FB08E0322C02D1FEF79D
:102FB0004AFB03E0332C01D1FEF73EFB07480760D4
:102FC000012007490860064800680028A1D0BDE834
:102FD000F081000054000020500000204C00002030
:102FE000480000202DE9F04104460D4616461F46D4
:102FF0002E49086800EBD0714910A0EB410100296F
:1030000035D12B49086800EBD0714910A0EB410184
:10301000A9B9FEF738FA312C02D1FEF72BFF08E0F0
:10302000322C02D1FEF71FFF03E0332C01D1FEF753
:1030300013FF2048056001201F49086034E0FEF7B7
:1030400022FAFEF707FA312C02D1FEF713FF08E04F
:10305000322C02D1FEF707FF03E0332C01D1FEF73B
:10306000FBFE144806600120134908601CE010496B
:10307000086800EBD0714910A0EB4101A1B9FEF73F
:1030800002FA312C02D1FEF7F5FE08E0322C02D113
:10309000FEF7E9FE03E0332C01D1FEF7DDFE054823
:1030A0000760012004490860BDE8F0815400002059
:1030B000500000204C000020480000202DE9F04185
:1030C00004460D4616461F462E49086800EBD0718F
:1030D0004910A0EB4101002933D12B49086800EBCE
:1030E000D0714910A0EB4101A9B9FEF7B6FD312C12
:1030F00002D1FEF7AFFA08E0322C02D1FEF7A3FAB4
:1031000003E0332C01D1FEF797FA20480560012037
:103110001F49086034E0FEF7A0FD312C02D1FEF714
:1031200099FA08E0322C02D1FEF78DFA03E0332C35
:1031300001D1FEF781FA15480660012014490860A4
:103140001EE01149086800EBD0714910A0EB410165
:10315000B1B9FEF782FDFEF767FD312C02D1FEF713
:1031600079FA08E0322C02D1FEF76DFA03E0332C35
:1031700001D1FEF761FA05480760012004490860A3
:10318000BDE8F08154000020500000204C000020D9
:10319000480000202DE9F04104460D4616461F4622
:1031A0002A49086800EBD0714910A0EB410179BBB6
:1031B0002749086800EBD0714910A0EB410199B98B
:1031C000312C02D1FEF756FE08E0322C02D1FEF778
:1031D0004AFE03E0332C01D1FEF73EFE1D48056098
:1031E00001201D4908602FE0312C02D1FEF742FE7C
:1031F00008E0322C02D1FEF736FE03E0332C01D179
:10320000FEF72AFE134806600120134908601BE000
:10321000FFE70F49086800EBD0714910A0EB4101AE
:1032200091B9312C02D1FEF725FE08E0322C02D1F3
:10323000FEF719FE03E0332C01D1FEF70DFE054821
:103240000760012004490860BDE8F08154000020B7
:10325000500000204C000020480000202DE9F041E3
:1032600004460D4616461F462A49086800EBD071F1
:103270004910A0EB410179BB2749086800EBD071E8
:103280004910A0EB410199B9312C02D1FEF7E2F9C6
:1032900008E0322C02D1FEF7D6F903E0332C01D13D
:1032A000FEF7CAF91D48056001201D4908602FE09E
:1032B000312C02D1FEF7CEF908E0322C02D1FEF714
:1032C000C2F903E0332C01D1FEF7C6FD13480660B6
:1032D0000120134908601BE0FFE70F49086800EB75
:1032E000D0714910A0EB410191B9312C02D1FEF708
:1032F000B1F908E0322C02D1FEF7A5F903E0332C36
:1033000001D1FEF799F905480760012004490860DA
:10331000BDE8F08154000020500000204C00002047
:103320004800002010B50020054908600549C1F893
:103330008801FFF77DFCFFF79DFCFFF70DFD10BD39
:10334000800121420000214270B504460D46012C47
:1033500002D12846FFF77AF9022C02D12846FFF75E
:10336000F9F9032C02D12846FFF778FA042C02D190
:103370002846FFF7F7FA052C02D12846FDF774F925
:10338000062C02D12846FDF7F3F9072C02D1284676
:10339000FDF772FA082C02D12846FDF7F1FA092C44
:1033A00002D12846FCF74EFF0A2C02D12846FCF732
:1033B000CDFF0B2C02D12846FDF74CF80C2C02D186
:1033C0002846FDF7CBF80D2C02D12846FDF734FE38
:1033D0000E2C02D12846FDF7B3FE0F2C02D1284651
:1033E000FDF732FF102C02D12846FDF7B1FF112C5A
:1033F00002D12846FDF76CFB122C02D12846FDF7BE
:10340000EBFB132C02D12846FDF76AFC142C02D1E9
:103410002846FDF7E9FC152C02D12846FEF76AF98B
:10342000162C02D12846FEF7E9F9172C02D12846BE
:10343000FEF768FA182C02D12846FEF7E7FA70BDAD
:1034400000F0DEF8FDF7E2FDFFF76CFF63E03248C5
:103450000068401C08B9FEF743FC00F0C3F80128DF
:1034600041D12E48FFF7D8FB2D4908702A48006843
:10347000022808D108460078012804D100F096F807
:1034800003202549086026480078FF283AD100200B
:10349000244908602049086000BF2048FFF7BCFBB2
:1034A0001F49087008460078FE2813D008460078A7
:1034B000FF280FD01B48006860B9084601781A48F9
:1034C00002680068401C184B18601848815401209D
:1034D0001449086012480078FE2813D0114800688B
:1034E0000028DAD00EE011480078401C0E49096827
:1034F000884207D10848006820B90B4801680B488A
:1035000000F022F804480068012804D100F0D4F843
:103510000220014908609AE76C0000200038014051
:103520005C0000207000002060000020740000207B
:103530000020014908607047808121420020014934
:10354000086070478481214270B505460C461248D8
:103550000068A04219DA11480068401C38B91048C8
:103560000D4A1268815C0F480068FFF7EDFE0B48BA
:10357000006801280ED108480068401C0649086010
:103580004FF0FF300549086004E0FEF7C3FB01205F
:103590000549086070BD0000680000204800002058
:1035A000740000204C0000206C00002010B50B4976
:1035B000086800EBD0714910A0EB410111B1012066
:1035C000FDF7A6FF0649086800EBD0714910A0EB93
:1035D000410111B10120FEF7ABFB10BD1C00002022
:1035E0001800002005480078012804D10020034974
:1035F0000870012070470020FCE700001500002043
:1036000000B587B001218803FEF794FA0121042058
:10361000FEF790FA18208DF81B004FF40070ADF8FB
:10362000180003208DF81A0006A92148FDF760FC58
:1036300048208DF81B004FF48060ADF8180003207F
:103640008DF81A0006A91A48FDF752FC4FF41650DF
:1036500002900020ADF814000C20ADF812000020FC
:10366000ADF81000ADF80E00ADF80C0002A911483D
:10367000FFF766FA012240F225510E48FFF73AFAA9
:103680004FF4A060FEF72AF825208DF804000120F1
:103690008DF807008DF805008DF8060001A8FDF7EC
:1036A000E5FF01210348FFF70CFA07B000BD000059
:1036B000000801400038014010B504462146054885
:1036C000FFF7AFFA00BF80210248FFF706FA002893
:1036D000F9D010BD003801400146552903D07529A5
:1036E00001D051290BD13122324B1A70552901D109
:1036F000312004E0752901D1322000E03320442933
:1037000003D0642901D057290BD13222294B1A70DA
:10371000442901D1312004E0642901D1322000E0A4
:103720003320422903D0622901D045290BD133220D
:10373000204B1A70422901D1312004E0622901D1C5
:10374000322000E033204C2903D06C2901D04129DC
:103750000BD13422174B1A704C2901D1312004E0CF
:103760006C2901D1322000E03320462903D066299C
:1037700001D053290BD135220E4B1A70462901D1A5
:10378000312004E0662901D1322000E033205229A3
:1037900003D0722901D05A290BD13622054B1A7059
:1037A000522901D1312004E0722901D1322000E0F8
:1037B000332070473C00002010B591EA030F48BF4A
:1037C00083F0004300F1F881841A71EB030C05D2F9
:1037D000121943EB0C03001B61EB0C01DFF824E131
:1037E0004FEA1154A4EB135C1EEA430F18BF9EEA84
:1037F000445F73D023EA0E03DCF1200E21EA04516A
:1038000043F4801332D322FA0CFE10EB0E0023FA9D
:103810000CFE41EB0E01CCF1200E03FA0EFE10EB74
:103820000E0051F10001B1F5801FCCF1200E32D213
:1038300001EB045112FA0EF2BDE8104058BF704778
:10384000401C38BF5FEA420218BF7047002814BF0F
:1038500020F0010041F100014FEA410313F5001F80
:1038600038BF7047A1F1C04100F08CB9012A43EB89
:103870000302ACF1200CDCF11F0E32BF4FF0000E42
:1038800023FA0CF310EB030041EB0451B4EB115F8E
:10389000D0D0A1EB045101F5801149085FEA300056
:1038A00001EB04510ED350F1000038BF12FA0EFEA6
:1038B00008D1BDE81040C9E7401C38BF5FEA4202AA
:1038C000CAD1C3E7BDE810404FEA410313F5001F1A
:1038D00038BF7047A1F1C04100F054B99EEA445F7F
:1038E00008D011EA5E0FBDE8104004BF01F00041AE
:1038F00000207047BDE8104070B500F0F5F800BF3B
:1039000064FBBE3E0000E0FF4FEA41034FEA535321
:10391000A3F58063D3F11E03C8BFD3F1210C0CDDE6
:103920004FF0004242EAC12242EA505232FA03FC0E
:103930008CEAE17CACEBE1707047102BC4BF002037
:10394000704703F5787CBCF1FF3F04D06FF0004274
:1039500082EA2100704770B500F0C6F849922480D1
:1039600000207047F2E710F0004248BF4042B0FA32
:1039700080F310FA03F10AD0C3F11D0303F580634D
:103980004FEA415002EB035202EBD12170474FF056
:1039900000007047DFF848C170B51CEA111E1EBF59
:1039A0001CEA13159EEA0C0F95EA0C0F00F06F80CD
:1039B00081EA030423EA4C134EEAD47E21EA4C1137
:1039C00041F4801143F48013AE44A1FB024CA0FBF0
:1039D0000365AEF17F7E361955EB0C05A1FB034C58
:1039E0004CF10003A0FB021C16EB0C06654153F1E1
:1039F0000003094218BF46F0010613F4007F0BD103
:103A00004FEA03314FEA0530340341EA155140EAE9
:103A100016506FF003020AE04FEAC3214FEAC520B7
:103A2000F40241EA555140EA56506FF0020202EBAF
:103A30002E4201EB025585EACE710AD05FEA440CB2
:103A400018BF24F0004450F1000041F1000120EAC9
:103A5000D47040F2FE7C624500D270BDA84214BF13
:103A60004FF080444FF04044002E08BF0024BEF1C8
:103A7000806FA8BFA1F1C041BDE8704080F2828094
:103A80004FF0000001F1C04101F0004170479EEA93
:103A90000C0F0CEA131518BF95EA0C0F06D04FF067
:103AA000000081EA030E0EF0004170BD00F01CF82A
:103AB0008900013E00F007B800F009B84FEA430C56
:103AC0005FEA5C5C08D081EA030100F05BB84FEA72
:103AD000410C5FEA5C5CF6D14FF000000149704791
:103AE0000000FF070000F87F0EF1020E2EF0030E1B
:103AF0005EF8046B364205D4012A43EB030515F545
:103B0000001F12D8012841EB010C1CF5001F0CD836
:103B10000ED14FEAD17C15F5001F0CEB4C0C0CF1CB
:103B2000020C08BF4CEBD37C04E04FF0080C01E022
:103B30004FEAD37C0CEB4C0526FA05F606F0070697
:103B4000B6F1040C06D20EEB860CBDE870404CF0CA
:103B5000010C6047DFE80CF0090B02024FF0004156
:103B60004FF00000A1F5002170BD19461046012854
:103B700051EB010418BFD4F5001484BF002001F0FC
:103B8000004170BD0808A0F500114FEA31017047EF
:103B900091EA030F10B581F000413FF515AE83F0B7
:103BA000004300F009B8000010B591EA030F48BFC8
:103BB00083F000433FF508AE841A71EB030C07D283
:103BC00012198CF0004C43EB0C03001B61EB0C0151
:103BD000DFF8A4E14FEA1154A4EB135C1EEA430F93
:103BE00018BF9EEA445F00F0B08023EA6E035242A1
:103BF00021EA0451C3EB6E0338BF5B1EDCF1200EDB
:103C000025D322FA0CFE10EB0E0043FA0CFE41EB1A
:103C10000E01CCF1200E03FA0EFE10EB0E0051F156
:103C20000001CCF1200E29D412FA0EF201EB04515E
:103C3000BDE8104058BF7047401C1CBFB2F1004F98
:103C4000704700280CBF491C20F00100704712EBA0
:103C5000020E43EB030218BF4FF0010E4EEA420280
:103C6000ACF1200CDCF11E0E54D943FA0CFE10EB23
:103C70000E0051F1FF31CCF11E0ED5D50EF1010E23
:103C800012FA0EFE404141EB010101EB445C5FEA98
:103C90005C5C10D910EBDE7001EB045138BFBEF153
:103CA000004FBDE8104018BF704700280CBF491CEA
:103CB00020F00100704730D24FEAD42C11F50011EA
:103CC00024F400641BD0B1FA81F20B3AA41AA41EAA
:103CD000D2F12003914030FA03F31943904001EBF5
:103CE000CC71002C01EB0451BDE81040A8BF704717
:103CF00001F1C0414FF0000001F000417047B0FAFF
:103D000080F310FA03F100D110BDE41A173C480506
:103D1000C90AE4E701EB045110BD491001EB04515D
:103D2000BDE810404FEA300002E04FF0000170475C
:103D30004A0008BF0042F8D0B2F5001F28BF704704
:103D400001F000414FF0000070479EEA445F07D049
:103D500011EA5E0FBDE8104004BF0021002070474B
:103D6000BDE8104070B5FFF7BFFE00BF40DFF63E74
:103D700083F00041104670470000E0FF9C3D0008C2
:103D8000000000207400000028010008103E000818
:103D900074000020640700004401000800000000D7
:103DA00001020304010203040607080902040608CD
:103DB0000000000000000000000000000000000003
:103DC00000000000000000000000000000000000F3
:103DD00000000000000000003000000000000000B3
:103DE00000000000FFFFFFFF0100000000000000D6
:103DF00000000000000000000000000000000000C3
:103E00000000000001000000FFFFFFFF00000000B5
:04000005080000ED02
:00000001FF
